{
  "_format": "hh-sol-artifact-1",
  "contractName": "Router",
  "sourceName": "src/contracts/Router.sol",
  "abi": [
    {
      "inputs": [
        {
          "internalType": "address",
          "name": "_factory",
          "type": "address"
        },
        {
          "internalType": "address",
          "name": "_WETH",
          "type": "address"
        }
      ],
      "stateMutability": "nonpayable",
      "type": "constructor"
    },
    {
      "inputs": [],
      "name": "WETH",
      "outputs": [
        {
          "internalType": "address",
          "name": "",
          "type": "address"
        }
      ],
      "stateMutability": "view",
      "type": "function"
    },
    {
      "inputs": [
        {
          "internalType": "address",
          "name": "tokenA",
          "type": "address"
        },
        {
          "internalType": "address",
          "name": "tokenB",
          "type": "address"
        },
        {
          "internalType": "uint256",
          "name": "amountADesired",
          "type": "uint256"
        },
        {
          "internalType": "uint256",
          "name": "amountBDesired",
          "type": "uint256"
        },
        {
          "internalType": "uint256",
          "name": "amountAMin",
          "type": "uint256"
        },
        {
          "internalType": "uint256",
          "name": "amountBMin",
          "type": "uint256"
        },
        {
          "internalType": "address",
          "name": "to",
          "type": "address"
        },
        {
          "internalType": "uint256",
          "name": "deadline",
          "type": "uint256"
        }
      ],
      "name": "addLiquidity",
      "outputs": [
        {
          "internalType": "uint256",
          "name": "amountA",
          "type": "uint256"
        },
        {
          "internalType": "uint256",
          "name": "amountB",
          "type": "uint256"
        },
        {
          "internalType": "uint256",
          "name": "liquidity",
          "type": "uint256"
        }
      ],
      "stateMutability": "nonpayable",
      "type": "function"
    },
    {
      "inputs": [
        {
          "internalType": "address",
          "name": "token",
          "type": "address"
        },
        {
          "internalType": "uint256",
          "name": "amountTokenDesired",
          "type": "uint256"
        },
        {
          "internalType": "uint256",
          "name": "amountTokenMin",
          "type": "uint256"
        },
        {
          "internalType": "uint256",
          "name": "amountETHMin",
          "type": "uint256"
        },
        {
          "internalType": "address",
          "name": "to",
          "type": "address"
        },
        {
          "internalType": "uint256",
          "name": "deadline",
          "type": "uint256"
        }
      ],
      "name": "addLiquidityETH",
      "outputs": [
        {
          "internalType": "uint256",
          "name": "amountToken",
          "type": "uint256"
        },
        {
          "internalType": "uint256",
          "name": "amountETH",
          "type": "uint256"
        },
        {
          "internalType": "uint256",
          "name": "liquidity",
          "type": "uint256"
        }
      ],
      "stateMutability": "payable",
      "type": "function"
    },
    {
      "inputs": [],
      "name": "amountAA",
      "outputs": [
        {
          "internalType": "uint256",
          "name": "",
          "type": "uint256"
        }
      ],
      "stateMutability": "view",
      "type": "function"
    },
    {
      "inputs": [],
      "name": "amountBB",
      "outputs": [
        {
          "internalType": "uint256",
          "name": "",
          "type": "uint256"
        }
      ],
      "stateMutability": "view",
      "type": "function"
    },
    {
      "inputs": [],
      "name": "factory",
      "outputs": [
        {
          "internalType": "address",
          "name": "",
          "type": "address"
        }
      ],
      "stateMutability": "view",
      "type": "function"
    },
    {
      "inputs": [
        {
          "internalType": "uint256",
          "name": "amountOut",
          "type": "uint256"
        },
        {
          "internalType": "uint256",
          "name": "reserveIn",
          "type": "uint256"
        },
        {
          "internalType": "uint256",
          "name": "reserveOut",
          "type": "uint256"
        }
      ],
      "name": "getAmountIn",
      "outputs": [
        {
          "internalType": "uint256",
          "name": "amountIn",
          "type": "uint256"
        }
      ],
      "stateMutability": "pure",
      "type": "function"
    },
    {
      "inputs": [
        {
          "internalType": "uint256",
          "name": "amountIn",
          "type": "uint256"
        },
        {
          "internalType": "uint256",
          "name": "reserveIn",
          "type": "uint256"
        },
        {
          "internalType": "uint256",
          "name": "reserveOut",
          "type": "uint256"
        }
      ],
      "name": "getAmountOut",
      "outputs": [
        {
          "internalType": "uint256",
          "name": "amountOut",
          "type": "uint256"
        }
      ],
      "stateMutability": "pure",
      "type": "function"
    },
    {
      "inputs": [
        {
          "internalType": "uint256",
          "name": "amountOut",
          "type": "uint256"
        },
        {
          "internalType": "address[]",
          "name": "path",
          "type": "address[]"
        }
      ],
      "name": "getAmountsIn",
      "outputs": [
        {
          "internalType": "uint256[]",
          "name": "amounts",
          "type": "uint256[]"
        }
      ],
      "stateMutability": "view",
      "type": "function"
    },
    {
      "inputs": [
        {
          "internalType": "uint256",
          "name": "amountIn",
          "type": "uint256"
        },
        {
          "internalType": "address[]",
          "name": "path",
          "type": "address[]"
        }
      ],
      "name": "getAmountsOut",
      "outputs": [
        {
          "internalType": "uint256[]",
          "name": "amounts",
          "type": "uint256[]"
        }
      ],
      "stateMutability": "view",
      "type": "function"
    },
    {
      "inputs": [
        {
          "internalType": "uint256",
          "name": "amountA",
          "type": "uint256"
        },
        {
          "internalType": "uint256",
          "name": "reserveA",
          "type": "uint256"
        },
        {
          "internalType": "uint256",
          "name": "reserveB",
          "type": "uint256"
        }
      ],
      "name": "quote",
      "outputs": [
        {
          "internalType": "uint256",
          "name": "amountB",
          "type": "uint256"
        }
      ],
      "stateMutability": "pure",
      "type": "function"
    },
    {
      "inputs": [
        {
          "internalType": "address",
          "name": "tokenA",
          "type": "address"
        },
        {
          "internalType": "address",
          "name": "tokenB",
          "type": "address"
        },
        {
          "internalType": "uint256",
          "name": "liquidity",
          "type": "uint256"
        },
        {
          "internalType": "uint256",
          "name": "amountAMin",
          "type": "uint256"
        },
        {
          "internalType": "uint256",
          "name": "amountBMin",
          "type": "uint256"
        },
        {
          "internalType": "address",
          "name": "to",
          "type": "address"
        },
        {
          "internalType": "uint256",
          "name": "deadline",
          "type": "uint256"
        }
      ],
      "name": "removeLiquidity",
      "outputs": [
        {
          "internalType": "uint256",
          "name": "amountA",
          "type": "uint256"
        },
        {
          "internalType": "uint256",
          "name": "amountB",
          "type": "uint256"
        }
      ],
      "stateMutability": "nonpayable",
      "type": "function"
    },
    {
      "inputs": [
        {
          "internalType": "address",
          "name": "token",
          "type": "address"
        },
        {
          "internalType": "uint256",
          "name": "liquidity",
          "type": "uint256"
        },
        {
          "internalType": "uint256",
          "name": "amountTokenMin",
          "type": "uint256"
        },
        {
          "internalType": "uint256",
          "name": "amountETHMin",
          "type": "uint256"
        },
        {
          "internalType": "address",
          "name": "to",
          "type": "address"
        },
        {
          "internalType": "uint256",
          "name": "deadline",
          "type": "uint256"
        }
      ],
      "name": "removeLiquidityETH",
      "outputs": [
        {
          "internalType": "uint256",
          "name": "amountETH",
          "type": "uint256"
        }
      ],
      "stateMutability": "nonpayable",
      "type": "function"
    },
    {
      "inputs": [
        {
          "internalType": "address",
          "name": "token",
          "type": "address"
        },
        {
          "internalType": "uint256",
          "name": "liquidity",
          "type": "uint256"
        },
        {
          "internalType": "uint256",
          "name": "amountTokenMin",
          "type": "uint256"
        },
        {
          "internalType": "uint256",
          "name": "amountETHMin",
          "type": "uint256"
        },
        {
          "internalType": "address",
          "name": "to",
          "type": "address"
        },
        {
          "internalType": "uint256",
          "name": "deadline",
          "type": "uint256"
        },
        {
          "internalType": "bool",
          "name": "approveMax",
          "type": "bool"
        },
        {
          "internalType": "uint8",
          "name": "v",
          "type": "uint8"
        },
        {
          "internalType": "bytes32",
          "name": "r",
          "type": "bytes32"
        },
        {
          "internalType": "bytes32",
          "name": "s",
          "type": "bytes32"
        }
      ],
      "name": "removeLiquidityETHWithPermit",
      "outputs": [
        {
          "internalType": "uint256",
          "name": "amountETH",
          "type": "uint256"
        }
      ],
      "stateMutability": "nonpayable",
      "type": "function"
    },
    {
      "inputs": [
        {
          "internalType": "uint256",
          "name": "amountOutMin",
          "type": "uint256"
        },
        {
          "internalType": "address[]",
          "name": "path",
          "type": "address[]"
        },
        {
          "internalType": "address",
          "name": "to",
          "type": "address"
        },
        {
          "internalType": "uint256",
          "name": "deadline",
          "type": "uint256"
        }
      ],
      "name": "swapExactETHForTokens",
      "outputs": [],
      "stateMutability": "payable",
      "type": "function"
    },
    {
      "inputs": [
        {
          "internalType": "uint256",
          "name": "amountIn",
          "type": "uint256"
        },
        {
          "internalType": "uint256",
          "name": "amountOutMin",
          "type": "uint256"
        },
        {
          "internalType": "address[]",
          "name": "path",
          "type": "address[]"
        },
        {
          "internalType": "address",
          "name": "to",
          "type": "address"
        },
        {
          "internalType": "uint256",
          "name": "deadline",
          "type": "uint256"
        }
      ],
      "name": "swapExactTokensForETHSupportingFeeOnTransferTokens",
      "outputs": [],
      "stateMutability": "nonpayable",
      "type": "function"
    },
    {
      "inputs": [
        {
          "internalType": "uint256",
          "name": "amountIn",
          "type": "uint256"
        },
        {
          "internalType": "uint256",
          "name": "amountOutMin",
          "type": "uint256"
        },
        {
          "internalType": "address[]",
          "name": "path",
          "type": "address[]"
        },
        {
          "internalType": "address",
          "name": "to",
          "type": "address"
        },
        {
          "internalType": "uint256",
          "name": "deadline",
          "type": "uint256"
        }
      ],
      "name": "swapExactTokensForTokens",
      "outputs": [],
      "stateMutability": "nonpayable",
      "type": "function"
    },
    {
      "stateMutability": "payable",
      "type": "receive"
    }
  ],
  "bytecode": "0x60c06040523480156200001157600080fd5b506040516200376c3803806200376c833981016040819052620000349162000070565b6001600160601b0319606092831b8116608052911b1660a052620000a7565b80516001600160a01b03811681146200006b57600080fd5b919050565b6000806040838503121562000083578182fd5b6200008e8362000053565b91506200009e6020840162000053565b90509250929050565b60805160601c60a05160601c6135dc6200019060003960008181610122015281816103bd0152818161048a015281816108620152818161096301528181610a2101528181610ab501528181610b4001528181610bb401528181610e9f0152818161114501528181611363015281816113b9015281816113ed015261148c015260008181610528015281816105b701528181610be601528181610ef9015281816110cc015281816110f501528181611123015281816112670152818161139701528181611b9f01528181611d74015281816121bd0152818161228b015261231e01526135dc6000f3fe6080604052600436106101125760003560e01c8063ad5c4648116100a5578063d06ca61f11610074578063e5cda5f811610059578063e5cda5f814610334578063e8e3370014610349578063f305d719146103785761015f565b8063d06ca61f146102f4578063ded9382a146103145761015f565b8063ad5c46481461026f578063ad615dec14610291578063baa2abde146102b1578063c45a0155146102df5761015f565b806338ed1739116100e157806338ed1739146101fc578063791ac9471461021c5780637ff36ab51461023c57806385f8c2591461024f5761015f565b806302751cec14610164578063054d50d41461019a57806313609037146101ba5780631f00ca74146101cf5761015f565b3661015f57336001600160a01b037f0000000000000000000000000000000000000000000000000000000000000000161461015d57634e487b7160e01b600052600160045260246000fd5b005b600080fd5b34801561017057600080fd5b5061018461017f3660046127bf565b61038b565b6040516101919190613406565b60405180910390f35b3480156101a657600080fd5b506101846101b5366004612b02565b610506565b3480156101c657600080fd5b5061018461051b565b3480156101db57600080fd5b506101ef6101ea3660046129a1565b610521565b6040516101919190612c8a565b34801561020857600080fd5b5061015d610217366004612a91565b610557565b34801561022857600080fd5b5061015d610237366004612a91565b610837565b61015d61024a36600461293c565b610a92565b34801561025b57600080fd5b5061018461026a366004612b02565b610e90565b34801561027b57600080fd5b50610284610e9d565b6040516101919190612bde565b34801561029d57600080fd5b506101846102ac366004612b02565b610ec1565b3480156102bd57600080fd5b506102d16102cc3660046126d3565b610ece565b60405161019192919061340f565b3480156102eb57600080fd5b506102846110ca565b34801561030057600080fd5b506101ef61030f3660046129a1565b6110ee565b34801561032057600080fd5b5061018461032f36600461281c565b61111b565b34801561034057600080fd5b50610184611221565b34801561035557600080fd5b50610369610364366004612744565b611227565b6040516101919392919061346e565b6103696103863660046127bf565b611337565b600081428110156103b75760405162461bcd60e51b81526004016103ae9061309a565b60405180910390fd5b6103e6887f00000000000000000000000000000000000000000000000000000000000000008989893089610ece565b6040516370a0823160e01b81529093506104739150899086906001600160a01b038316906370a082319061041e903090600401612bde565b60206040518083038186803b15801561043657600080fd5b505afa15801561044a573d6000803e3d6000fd5b505050506040513d601f19601f8201168201806040525081019061046e9190612924565b6115db565b604051632e1a7d4d60e01b81526001600160a01b037f00000000000000000000000000000000000000000000000000000000000000001690632e1a7d4d906104bf908590600401613406565b600060405180830381600087803b1580156104d957600080fd5b505af11580156104ed573d6000803e3d6000fd5b505050506104fb84836116c8565b509695505050505050565b600061051384848461175a565b949350505050565b60005481565b606061054e7f000000000000000000000000000000000000000000000000000000000000000084846117f4565b90505b92915050565b80428110156105785760405162461bcd60e51b81526004016103ae9061309a565b61064d8585600081811061059c57634e487b7160e01b600052603260045260246000fd5b90506020020160208101906105b19190612694565b336106477f0000000000000000000000000000000000000000000000000000000000000000898960008181106105f757634e487b7160e01b600052603260045260246000fd5b905060200201602081019061060c9190612694565b8a8a600181811061062d57634e487b7160e01b600052603260045260246000fd5b90506020020160208101906106429190612694565b6119ae565b8a611a1e565b6000858561065c6001826134db565b81811061067957634e487b7160e01b600052603260045260246000fd5b905060200201602081019061068e9190612694565b6001600160a01b03166370a08231856040518263ffffffff1660e01b81526004016106b99190612bde565b60206040518083038186803b1580156106d157600080fd5b505afa1580156106e5573d6000803e3d6000fd5b505050506040513d601f19601f820116820180604052508101906107099190612924565b9050610749868680806020026020016040519081016040528093929190818152602001838360200280828437600092019190915250889250611b0e915050565b868187876107586001826134db565b81811061077557634e487b7160e01b600052603260045260246000fd5b905060200201602081019061078a9190612694565b6001600160a01b03166370a08231876040518263ffffffff1660e01b81526004016107b59190612bde565b60206040518083038186803b1580156107cd57600080fd5b505afa1580156107e1573d6000803e3d6000fd5b505050506040513d601f19601f820116820180604052508101906108059190612924565b61080f91906134db565b101561082d5760405162461bcd60e51b81526004016103ae9061328b565b5050505050505050565b80428110156108585760405162461bcd60e51b81526004016103ae9061309a565b6001600160a01b037f000000000000000000000000000000000000000000000000000000000000000016858561088f6001826134db565b8181106108ac57634e487b7160e01b600052603260045260246000fd5b90506020020160208101906108c19190612694565b6001600160a01b0316146108e75760405162461bcd60e51b81526004016103ae90612daa565b61090b8585600081811061059c57634e487b7160e01b600052603260045260246000fd5b610949858580806020026020016040519081016040528093929190818152602001838360200280828437600092019190915250309250611b0e915050565b6040516370a0823160e01b81526000906001600160a01b037f000000000000000000000000000000000000000000000000000000000000000016906370a0823190610998903090600401612bde565b60206040518083038186803b1580156109b057600080fd5b505afa1580156109c4573d6000803e3d6000fd5b505050506040513d601f19601f820116820180604052508101906109e89190612924565b905086811015610a0a5760405162461bcd60e51b81526004016103ae9061303d565b604051632e1a7d4d60e01b81526001600160a01b037f00000000000000000000000000000000000000000000000000000000000000001690632e1a7d4d90610a56908490600401613406565b600060405180830381600087803b158015610a7057600080fd5b505af1158015610a84573d6000803e3d6000fd5b5050505061082d84826116c8565b8042811015610ab35760405162461bcd60e51b81526004016103ae9061309a565b7f00000000000000000000000000000000000000000000000000000000000000006001600160a01b031685856000818110610afe57634e487b7160e01b600052603260045260246000fd5b9050602002016020810190610b139190612694565b6001600160a01b031614610b395760405162461bcd60e51b81526004016103ae906133c3565b60003490507f00000000000000000000000000000000000000000000000000000000000000006001600160a01b031663d0e30db0826040518263ffffffff1660e01b81526004016000604051808303818588803b158015610b9957600080fd5b505af1158015610bad573d6000803e3d6000fd5b50505050507f00000000000000000000000000000000000000000000000000000000000000006001600160a01b031663a9059cbb610c267f0000000000000000000000000000000000000000000000000000000000000000898960008181106105f757634e487b7160e01b600052603260045260246000fd5b836040518363ffffffff1660e01b8152600401610c44929190612c71565b602060405180830381600087803b158015610c5e57600080fd5b505af1158015610c72573d6000803e3d6000fd5b505050506040513d601f19601f82011682018060405250810190610c9691906128ba565b610cb057634e487b7160e01b600052600160045260246000fd5b60008686610cbf6001826134db565b818110610cdc57634e487b7160e01b600052603260045260246000fd5b9050602002016020810190610cf19190612694565b6001600160a01b03166370a08231866040518263ffffffff1660e01b8152600401610d1c9190612bde565b60206040518083038186803b158015610d3457600080fd5b505afa158015610d48573d6000803e3d6000fd5b505050506040513d601f19601f82011682018060405250810190610d6c9190612924565b9050610dac878780806020026020016040519081016040528093929190818152602001838360200280828437600092019190915250899250611b0e915050565b87818888610dbb6001826134db565b818110610dd857634e487b7160e01b600052603260045260246000fd5b9050602002016020810190610ded9190612694565b6001600160a01b03166370a08231886040518263ffffffff1660e01b8152600401610e189190612bde565b60206040518083038186803b158015610e3057600080fd5b505afa158015610e44573d6000803e3d6000fd5b505050506040513d601f19601f82011682018060405250810190610e689190612924565b610e7291906134db565b101561082d5760405162461bcd60e51b81526004016103ae90612fa9565b6000610513848484611e74565b7f000000000000000000000000000000000000000000000000000000000000000081565b6000610513848484611f08565b6000808242811015610ef25760405162461bcd60e51b81526004016103ae9061309a565b6000610f1f7f00000000000000000000000000000000000000000000000000000000000000008c8c6119ae565b6040517f23b872dd0000000000000000000000000000000000000000000000000000000081529091506001600160a01b038216906323b872dd90610f6b90339085908e90600401612c0c565b602060405180830381600087803b158015610f8557600080fd5b505af1158015610f99573d6000803e3d6000fd5b505050506040513d601f19601f82011682018060405250810190610fbd91906128ba565b50600080826001600160a01b03166389afcb44896040518263ffffffff1660e01b8152600401610fed9190612bde565b6040805180830381600087803b15801561100657600080fd5b505af115801561101a573d6000803e3d6000fd5b505050506040513d601f19601f8201168201806040525081019061103e9190612a6e565b91509150600061104e8e8e611f6a565b509050806001600160a01b03168e6001600160a01b031614611071578183611074565b82825b90975095508a8710156110995760405162461bcd60e51b81526004016103ae906131ba565b898610156110b95760405162461bcd60e51b81526004016103ae90613245565b505050505097509795505050505050565b7f000000000000000000000000000000000000000000000000000000000000000081565b606061054e7f00000000000000000000000000000000000000000000000000000000000000008484611ff4565b6000806111697f00000000000000000000000000000000000000000000000000000000000000008d7f00000000000000000000000000000000000000000000000000000000000000006119ae565b9050600086611178578b61117c565b6000195b6040517fd505accf0000000000000000000000000000000000000000000000000000000081529091506001600160a01b0383169063d505accf906111d0903390309086908e908d908d908d90600401612c30565b600060405180830381600087803b1580156111ea57600080fd5b505af11580156111fe573d6000803e3d6000fd5b505050506112108d8d8d8d8d8d61038b565b9d9c50505050505050505050505050565b60015481565b6000806000834281101561124d5760405162461bcd60e51b81526004016103ae9061309a565b61125b8c8c8c8c8c8c61218e565b9094509250600061128d7f00000000000000000000000000000000000000000000000000000000000000008e8e6119ae565b905061129b8d338388611a1e565b6112a78c338387611a1e565b6040516335313c2160e11b81526001600160a01b03821690636a627842906112d3908a90600401612bde565b602060405180830381600087803b1580156112ed57600080fd5b505af1158015611301573d6000803e3d6000fd5b505050506040513d601f19601f820116820180604052508101906113259190612924565b92505050985098509895505050505050565b6000806000834281101561135d5760405162461bcd60e51b81526004016103ae9061309a565b61138b8a7f00000000000000000000000000000000000000000000000000000000000000008b348c8c61218e565b909450925060006113dd7f00000000000000000000000000000000000000000000000000000000000000008c7f00000000000000000000000000000000000000000000000000000000000000006119ae565b90506113eb8b338388611a1e565b7f00000000000000000000000000000000000000000000000000000000000000006001600160a01b031663d0e30db0856040518263ffffffff1660e01b81526004016000604051808303818588803b15801561144657600080fd5b505af115801561145a573d6000803e3d6000fd5b50506040517fa9059cbb0000000000000000000000000000000000000000000000000000000081526001600160a01b037f000000000000000000000000000000000000000000000000000000000000000016935063a9059cbb92506114c6915084908890600401612c71565b602060405180830381600087803b1580156114e057600080fd5b505af11580156114f4573d6000803e3d6000fd5b505050506040513d601f19601f8201168201806040525081019061151891906128ba565b61153257634e487b7160e01b600052600160045260246000fd5b6040516335313c2160e11b81526001600160a01b03821690636a6278429061155e908a90600401612bde565b602060405180830381600087803b15801561157857600080fd5b505af115801561158c573d6000803e3d6000fd5b505050506040513d601f19601f820116820180604052508101906115b09190612924565b9250833411156115cd576115cd336115c886346134db565b6116c8565b505096509650969350505050565b600080846001600160a01b031663a9059cbb8585604051602401611600929190612c71565b6040516020818303038152906040529060e01b6020820180516001600160e01b0383818316178352505050506040516116399190612b54565b6000604051808303816000865af19150503d8060008114611676576040519150601f19603f3d011682016040523d82523d6000602084013e61167b565b606091505b50915091508180156116a55750805115806116a55750808060200190518101906116a591906128ba565b6116c15760405162461bcd60e51b81526004016103ae9061331f565b5050505050565b604080516000808252602082019092526001600160a01b0384169083906040516116f29190612b54565b60006040518083038185875af1925050503d806000811461172f576040519150601f19603f3d011682016040523d82523d6000602084013e611734565b606091505b50509050806117555760405162461bcd60e51b81526004016103ae90612ede565b505050565b600080841161177b5760405162461bcd60e51b81526004016103ae90613116565b60008311801561178b5750600082115b6117a75760405162461bcd60e51b81526004016103ae90612e24565b60006117b5856103e6612413565b905060006117c38285612413565b905060006117dd836117d7886103e8612413565b90612453565b90506117e9818361349c565b979650505050505050565b60606002825110156118185760405162461bcd60e51b81526004016103ae90612f72565b815167ffffffffffffffff81111561184057634e487b7160e01b600052604160045260246000fd5b604051908082528060200260200182016040528015611869578160200160208202803683370190505b50905082816001835161187c91906134db565b8151811061189a57634e487b7160e01b600052603260045260246000fd5b6020026020010181815250506000600183516118b691906134db565b90505b80156119a65760008061192587866118d26001876134db565b815181106118f057634e487b7160e01b600052603260045260246000fd5b602002602001015187868151811061191857634e487b7160e01b600052603260045260246000fd5b6020026020010151612481565b9150915061195b84848151811061194c57634e487b7160e01b600052603260045260246000fd5b60200260200101518383611e74565b846119676001866134db565b8151811061198557634e487b7160e01b600052603260045260246000fd5b6020026020010181815250505050808061199e90613522565b9150506118b9565b509392505050565b60008060006119bd8585611f6a565b915091508582826040516020016119d5929190612b2d565b604051602081830303815290604052805190602001206040516020016119fc929190612b70565b60408051601f1981840301815291905280516020909101209695505050505050565b600080856001600160a01b03166323b872dd868686604051602401611a4593929190612c0c565b6040516020818303038152906040529060e01b6020820180516001600160e01b038381831617835250505050604051611a7e9190612b54565b6000604051808303816000865af19150503d8060008114611abb576040519150601f19603f3d011682016040523d82523d6000602084013e611ac0565b606091505b5091509150818015611aea575080511580611aea575080806020019051810190611aea91906128ba565b611b065760405162461bcd60e51b81526004016103ae90612e81565b505050505050565b60005b60018351611b1f91906134db565b81101561175557600080848381518110611b4957634e487b7160e01b600052603260045260246000fd5b602002602001015185846001611b5f9190613484565b81518110611b7d57634e487b7160e01b600052603260045260246000fd5b6020026020010151915091506000611b958383611f6a565b5090506000611bc57f000000000000000000000000000000000000000000000000000000000000000085856119ae565b9050600080600080846001600160a01b0316630902f1ac6040518163ffffffff1660e01b815260040160606040518083038186803b158015611c0657600080fd5b505afa158015611c1a573d6000803e3d6000fd5b505050506040513d601f19601f82011682018060405250810190611c3e91906128d6565b506dffffffffffffffffffffffffffff1691506dffffffffffffffffffffffffffff169150600080876001600160a01b03168a6001600160a01b031614611c86578284611c89565b83835b91509150818a6001600160a01b03166370a08231896040518263ffffffff1660e01b8152600401611cba9190612bde565b60206040518083038186803b158015611cd257600080fd5b505afa158015611ce6573d6000803e3d6000fd5b505050506040513d601f19601f82011682018060405250810190611d0a9190612924565b611d1491906134db565b9550611d2186838361175a565b945050505050600080856001600160a01b0316886001600160a01b031614611d4b57826000611d4f565b6000835b91509150600060028c51611d6391906134db565b8a10611d6f578a611dcb565b611dcb7f0000000000000000000000000000000000000000000000000000000000000000898e611da08e6002613484565b81518110611dbe57634e487b7160e01b600052603260045260246000fd5b60200260200101516119ae565b604080516000815260208101918290527f022c0d9f000000000000000000000000000000000000000000000000000000009091529091506001600160a01b0387169063022c0d9f90611e26908690869086906024810161341d565b600060405180830381600087803b158015611e4057600080fd5b505af1158015611e54573d6000803e3d6000fd5b505050505050505050505050508080611e6c90613539565b915050611b11565b6000808411611e955760405162461bcd60e51b81526004016103ae9061337c565b600083118015611ea55750600082115b611ec15760405162461bcd60e51b81526004016103ae9061315d565b6000611ed96103e8611ed38688612413565b90612413565b90506000611eed6103e6611ed38689612573565b9050611efe60016117d7838561349c565b9695505050505050565b6000808411611f295760405162461bcd60e51b81526004016103ae90612d05565b600083118015611f395750600082115b611f555760405162461bcd60e51b81526004016103ae906132e8565b82611f6083866134bc565b610513919061349c565b600080826001600160a01b0316846001600160a01b03161415611f9f5760405162461bcd60e51b81526004016103ae90612d73565b826001600160a01b0316846001600160a01b031610611fbf578284611fc2565b83835b90925090506001600160a01b038216611fed5760405162461bcd60e51b81526004016103ae90613006565b9250929050565b60606002825110156120185760405162461bcd60e51b81526004016103ae90612f3b565b815167ffffffffffffffff81111561204057634e487b7160e01b600052604160045260246000fd5b604051908082528060200260200182016040528015612069578160200160208202803683370190505b509050828160008151811061208e57634e487b7160e01b600052603260045260246000fd5b60200260200101818152505060005b600183516120ab91906134db565b8110156119a65760008061210d878685815181106120d957634e487b7160e01b600052603260045260246000fd5b6020026020010151878660016120ef9190613484565b8151811061191857634e487b7160e01b600052603260045260246000fd5b9150915061214384848151811061213457634e487b7160e01b600052603260045260246000fd5b6020026020010151838361175a565b8461214f856001613484565b8151811061216d57634e487b7160e01b600052603260045260246000fd5b6020026020010181815250505050808061218690613539565b91505061209d565b6040517fe6a43905000000000000000000000000000000000000000000000000000000008152600090819081907f00000000000000000000000000000000000000000000000000000000000000006001600160a01b03169063e6a43905906121fc908c908c90600401612bf2565b60206040518083038186803b15801561221457600080fd5b505afa158015612228573d6000803e3d6000fd5b505050506040513d601f19601f8201168201806040525081019061224c91906126b7565b6001600160a01b03161415612316576040517fc9c653960000000000000000000000000000000000000000000000000000000081526001600160a01b037f0000000000000000000000000000000000000000000000000000000000000000169063c9c65396906122c2908b908b90600401612bf2565b602060405180830381600087803b1580156122dc57600080fd5b505af11580156122f0573d6000803e3d6000fd5b505050506040513d601f19601f8201168201806040525081019061231491906126b7565b505b6000806123447f00000000000000000000000000000000000000000000000000000000000000008b8b612481565b91509150816000148015612356575080155b1561236657879350869250612406565b6000612373898484611f08565b90508781116123b15761238681876125a1565b858110156123a65760405162461bcd60e51b81526004016103ae906130d1565b889450925082612404565b60006123be898486611f08565b9050898111156123de57634e487b7160e01b600052600160045260246000fd5b878110156123fe5760405162461bcd60e51b81526004016103ae90613200565b94508793505b505b5050965096945050505050565b60008115806124375750828261242981836134bc565b9250612435908361349c565b145b6105515760405162461bcd60e51b81526004016103ae90612d3c565b6000826124608382613484565b91508110156105515760405162461bcd60e51b81526004016103ae90612ded565b60008060006124908585611f6a565b5090506000806124a18888886119ae565b6001600160a01b0316630902f1ac6040518163ffffffff1660e01b815260040160606040518083038186803b1580156124d957600080fd5b505afa1580156124ed573d6000803e3d6000fd5b505050506040513d601f19601f8201168201806040525081019061251191906128d6565b506dffffffffffffffffffffffffffff1691506dffffffffffffffffffffffffffff169150826001600160a01b0316876001600160a01b031614612556578082612559565b81815b909550935061256885856125a1565b505050935093915050565b60008261258083826134db565b91508111156105515760405162461bcd60e51b81526004016103ae90612cce565b6125ff82826040516024016125b792919061340f565b60408051601f198184030181529190526020810180516001600160e01b03167f6c0f698000000000000000000000000000000000000000000000000000000000179052612603565b5050565b80516a636f6e736f6c652e6c6f67602083016000808483855afa5050505050565b803561262f81613580565b919050565b60008083601f840112612645578081fd5b50813567ffffffffffffffff81111561265c578182fd5b6020830191508360208083028501011115611fed57600080fd5b80516dffffffffffffffffffffffffffff8116811461262f57600080fd5b6000602082840312156126a5578081fd5b81356126b081613580565b9392505050565b6000602082840312156126c8578081fd5b81516126b081613580565b600080600080600080600060e0888a0312156126ed578283fd5b87356126f881613580565b9650602088013561270881613580565b955060408801359450606088013593506080880135925060a088013561272d81613580565b8092505060c0880135905092959891949750929550565b600080600080600080600080610100898b031215612760578081fd5b883561276b81613580565b9750602089013561277b81613580565b965060408901359550606089013594506080890135935060a0890135925060c08901356127a781613580565b8092505060e089013590509295985092959890939650565b60008060008060008060c087890312156127d7578182fd5b86356127e281613580565b9550602087013594506040870135935060608701359250608087013561280781613580565b8092505060a087013590509295509295509295565b6000806000806000806000806000806101408b8d03121561283b578182fd5b8a3561284681613580565b995060208b0135985060408b0135975060608b0135965060808b013561286b81613580565b955060a08b0135945060c08b013561288281613598565b935060e08b013560ff81168114612897578283fd5b809350506101008b013591506101208b013590509295989b9194979a5092959850565b6000602082840312156128cb578081fd5b81516126b081613598565b6000806000606084860312156128ea578081fd5b6128f384612676565b925061290160208501612676565b9150604084015163ffffffff81168114612919578182fd5b809150509250925092565b600060208284031215612935578081fd5b5051919050565b600080600080600060808688031215612953578283fd5b85359450602086013567ffffffffffffffff811115612970578384fd5b61297c88828901612634565b909550935050604086013561299081613580565b949793965091946060013592915050565b600080604083850312156129b3578182fd5b8235915060208084013567ffffffffffffffff808211156129d2578384fd5b818601915086601f8301126129e5578384fd5b8135818111156129f7576129f761356a565b83810260405185828201018181108582111715612a1657612a1661356a565b604052828152858101935084860182860187018b1015612a34578788fd5b8795505b83861015612a5d57612a4981612624565b855260019590950194938601938601612a38565b508096505050505050509250929050565b60008060408385031215612a80578182fd5b505080516020909101519092909150565b60008060008060008060a08789031215612aa9578384fd5b8635955060208701359450604087013567ffffffffffffffff811115612acd578485fd5b612ad989828a01612634565b9095509350506060870135612aed81613580565b80925050608087013590509295509295509295565b600080600060608486031215612b16578081fd5b505081359360208301359350604090920135919050565b6bffffffffffffffffffffffff19606093841b811682529190921b16601482015260280190565b60008251612b668184602087016134f2565b9190910192915050565b7fff00000000000000000000000000000000000000000000000000000000000000815260609290921b6bffffffffffffffffffffffff1916600183015260158201527f66130edb0660eacd45ec002ae0448cb990b8703fd3368eb14ff3ee557eb5dc5d603582015260550190565b6001600160a01b0391909116815260200190565b6001600160a01b0392831681529116602082015260400190565b6001600160a01b039384168152919092166020820152604081019190915260600190565b6001600160a01b0397881681529590961660208601526040850193909352606084019190915260ff16608083015260a082015260c081019190915260e00190565b6001600160a01b03929092168252602082015260400190565b6020808252825182820181905260009190848201906040850190845b81811015612cc257835183529284019291840191600101612ca6565b50909695505050505050565b60208082526015908201527f64732d6d6174682d7375622d756e646572666c6f770000000000000000000000604082015260600190565b6020808252601a908201527f71756f74653a20494e53554646494349454e545f414d4f554e54000000000000604082015260600190565b60208082526014908201527f64732d6d6174682d6d756c2d6f766572666c6f77000000000000000000000000604082015260600190565b6020808252601f908201527f736f7274546f6b656e733a204944454e544943414c5f41444452455353455300604082015260600190565b60208082526023908201527f737761704578616374546f6b656e73466f724554483a20494e56414c49445f50604082015262082a8960eb1b606082015260800190565b60208082526014908201527f64732d6d6174682d6164642d6f766572666c6f77000000000000000000000000604082015260600190565b60208082526024908201527f676574416d6f756e744f75743a20494e53554646494349454e545f4c4951554960408201527f4449545900000000000000000000000000000000000000000000000000000000606082015260800190565b60208082526031908201527f5472616e7366657248656c7065723a3a7472616e7366657246726f6d3a20747260408201527f616e7366657246726f6d206661696c6564000000000000000000000000000000606082015260800190565b60208082526034908201527f5472616e7366657248656c7065723a3a736166655472616e736665724554483a60408201527f20455448207472616e73666572206661696c6564000000000000000000000000606082015260800190565b6020808252601b908201527f676574416d6f756e74734f75743a20494e56414c49445f504154480000000000604082015260600190565b6020808252601a908201527f676574416d6f756e7473496e3a20494e56414c49445f50415448000000000000604082015260600190565b60208082526031908201527f737761704578616374455448466f72546f6b656e733a20494e5355464649434960408201527f454e545f4f55545055545f414d4f554e54000000000000000000000000000000606082015260800190565b60208082526018908201527f736f7274546f6b656e733a205a45524f5f414444524553530000000000000000604082015260600190565b60208082526031908201527f737761704578616374546f6b656e73466f724554483a20494e5355464649434960408201527f454e545f4f55545055545f414d4f554e54000000000000000000000000000000606082015260800190565b60208082526016908201527f526f7574657220656e737572653a204558504952454400000000000000000000604082015260600190565b60208082526025908201527f5f6164644c6971756964697479313a20494e53554646494349454e545f425f416040820152641353d5539560da1b606082015260800190565b60208082526027908201527f676574416d6f756e744f75743a20494e53554646494349454e545f494e50555460408201526617d05353d5539560ca1b606082015260800190565b60208082526023908201527f676574416d6f756e74496e3a20494e53554646494349454e545f4c495155494460408201527f4954590000000000000000000000000000000000000000000000000000000000606082015260800190565b60208082526026908201527f72656d6f76654c69717569646974793a20494e53554646494349454e545f415f604082015265105353d5539560d21b606082015260800190565b60208082526025908201527f5f6164644c6971756964697479323a20494e53554646494349454e545f415f416040820152641353d5539560da1b606082015260800190565b60208082526026908201527f72656d6f76654c69717569646974793a20494e53554646494349454e545f425f604082015265105353d5539560d21b606082015260800190565b6020808252602b908201527f556e69737761705632526f757465723a20494e53554646494349454e545f4f5560408201527f545055545f414d4f554e54000000000000000000000000000000000000000000606082015260800190565b6020808252601d908201527f71756f74653a20494e53554646494349454e545f4c4951554944495459000000604082015260600190565b6020808252602d908201527f5472616e7366657248656c7065723a3a736166655472616e736665723a20747260408201527f616e73666572206661696c656400000000000000000000000000000000000000606082015260800190565b60208082526027908201527f676574416d6f756e74496e3a20494e53554646494349454e545f4f555450555460408201526617d05353d5539560ca1b606082015260800190565b60208082526023908201527f737761704578616374455448466f72546f6b656e733a20494e56414c49445f50604082015262082a8960eb1b606082015260800190565b90815260200190565b918252602082015260400190565b60008582528460208301526001600160a01b03841660408301526080606083015282518060808401526134578160a08501602087016134f2565b601f01601f19169190910160a00195945050505050565b9283526020830191909152604082015260600190565b6000821982111561349757613497613554565b500190565b6000826134b757634e487b7160e01b81526012600452602481fd5b500490565b60008160001904831182151516156134d6576134d6613554565b500290565b6000828210156134ed576134ed613554565b500390565b60005b8381101561350d5781810151838201526020016134f5565b8381111561351c576000848401525b50505050565b60008161353157613531613554565b506000190190565b600060001982141561354d5761354d613554565b5060010190565b634e487b7160e01b600052601160045260246000fd5b634e487b7160e01b600052604160045260246000fd5b6001600160a01b038116811461359557600080fd5b50565b801515811461359557600080fdfea26469706673582212205eca95782b8993606cc013f3dbbf14aab733b3404f514d0b90952d5d1395620d64736f6c63430008000033",
  "linkReferences": {},
  "deployedLinkReferences": {}
}