{
  "_format": "hh-sol-artifact-1",
  "contractName": "Router",
  "sourceName": "src/contracts/Router.sol",
  "abi": [
    {
      "inputs": [
        {
          "internalType": "address",
          "name": "_factory",
          "type": "address"
        },
        {
          "internalType": "address",
          "name": "_WETH",
          "type": "address"
        }
      ],
      "stateMutability": "nonpayable",
      "type": "constructor"
    },
    {
      "inputs": [],
      "name": "WETH",
      "outputs": [
        {
          "internalType": "address",
          "name": "",
          "type": "address"
        }
      ],
      "stateMutability": "view",
      "type": "function"
    },
    {
      "inputs": [
        {
          "internalType": "address",
          "name": "tokenA",
          "type": "address"
        },
        {
          "internalType": "address",
          "name": "tokenB",
          "type": "address"
        },
        {
          "internalType": "uint256",
          "name": "amountADesired",
          "type": "uint256"
        },
        {
          "internalType": "uint256",
          "name": "amountBDesired",
          "type": "uint256"
        },
        {
          "internalType": "uint256",
          "name": "amountAMin",
          "type": "uint256"
        },
        {
          "internalType": "uint256",
          "name": "amountBMin",
          "type": "uint256"
        },
        {
          "internalType": "address",
          "name": "to",
          "type": "address"
        },
        {
          "internalType": "uint256",
          "name": "deadline",
          "type": "uint256"
        }
      ],
      "name": "addLiquidity",
      "outputs": [
        {
          "internalType": "uint256",
          "name": "amountA",
          "type": "uint256"
        },
        {
          "internalType": "uint256",
          "name": "amountB",
          "type": "uint256"
        },
        {
          "internalType": "uint256",
          "name": "liquidity",
          "type": "uint256"
        }
      ],
      "stateMutability": "nonpayable",
      "type": "function"
    },
    {
      "inputs": [
        {
          "internalType": "address",
          "name": "token",
          "type": "address"
        },
        {
          "internalType": "uint256",
          "name": "amountTokenDesired",
          "type": "uint256"
        },
        {
          "internalType": "uint256",
          "name": "amountTokenMin",
          "type": "uint256"
        },
        {
          "internalType": "uint256",
          "name": "amountETHMin",
          "type": "uint256"
        },
        {
          "internalType": "address",
          "name": "to",
          "type": "address"
        },
        {
          "internalType": "uint256",
          "name": "deadline",
          "type": "uint256"
        }
      ],
      "name": "addLiquidityETH",
      "outputs": [
        {
          "internalType": "uint256",
          "name": "amountToken",
          "type": "uint256"
        },
        {
          "internalType": "uint256",
          "name": "amountETH",
          "type": "uint256"
        },
        {
          "internalType": "uint256",
          "name": "liquidity",
          "type": "uint256"
        }
      ],
      "stateMutability": "payable",
      "type": "function"
    },
    {
      "inputs": [],
      "name": "factory",
      "outputs": [
        {
          "internalType": "address",
          "name": "",
          "type": "address"
        }
      ],
      "stateMutability": "view",
      "type": "function"
    },
    {
      "inputs": [
        {
          "internalType": "uint256",
          "name": "amountOut",
          "type": "uint256"
        },
        {
          "internalType": "uint256",
          "name": "reserveIn",
          "type": "uint256"
        },
        {
          "internalType": "uint256",
          "name": "reserveOut",
          "type": "uint256"
        }
      ],
      "name": "getAmountIn",
      "outputs": [
        {
          "internalType": "uint256",
          "name": "amountIn",
          "type": "uint256"
        }
      ],
      "stateMutability": "pure",
      "type": "function"
    },
    {
      "inputs": [
        {
          "internalType": "uint256",
          "name": "amountIn",
          "type": "uint256"
        },
        {
          "internalType": "uint256",
          "name": "reserveIn",
          "type": "uint256"
        },
        {
          "internalType": "uint256",
          "name": "reserveOut",
          "type": "uint256"
        }
      ],
      "name": "getAmountOut",
      "outputs": [
        {
          "internalType": "uint256",
          "name": "amountOut",
          "type": "uint256"
        }
      ],
      "stateMutability": "pure",
      "type": "function"
    },
    {
      "inputs": [
        {
          "internalType": "uint256",
          "name": "amountOut",
          "type": "uint256"
        },
        {
          "internalType": "address[]",
          "name": "path",
          "type": "address[]"
        }
      ],
      "name": "getAmountsIn",
      "outputs": [
        {
          "internalType": "uint256[]",
          "name": "amounts",
          "type": "uint256[]"
        }
      ],
      "stateMutability": "view",
      "type": "function"
    },
    {
      "inputs": [
        {
          "internalType": "uint256",
          "name": "amountIn",
          "type": "uint256"
        },
        {
          "internalType": "address[]",
          "name": "path",
          "type": "address[]"
        }
      ],
      "name": "getAmountsOut",
      "outputs": [
        {
          "internalType": "uint256[]",
          "name": "amounts",
          "type": "uint256[]"
        }
      ],
      "stateMutability": "view",
      "type": "function"
    },
    {
      "inputs": [
        {
          "internalType": "uint256",
          "name": "amountA",
          "type": "uint256"
        },
        {
          "internalType": "uint256",
          "name": "reserveA",
          "type": "uint256"
        },
        {
          "internalType": "uint256",
          "name": "reserveB",
          "type": "uint256"
        }
      ],
      "name": "quote",
      "outputs": [
        {
          "internalType": "uint256",
          "name": "amountB",
          "type": "uint256"
        }
      ],
      "stateMutability": "pure",
      "type": "function"
    },
    {
      "inputs": [
        {
          "internalType": "address",
          "name": "tokenA",
          "type": "address"
        },
        {
          "internalType": "address",
          "name": "tokenB",
          "type": "address"
        },
        {
          "internalType": "uint256",
          "name": "liquidity",
          "type": "uint256"
        },
        {
          "internalType": "uint256",
          "name": "amountAMin",
          "type": "uint256"
        },
        {
          "internalType": "uint256",
          "name": "amountBMin",
          "type": "uint256"
        },
        {
          "internalType": "address",
          "name": "to",
          "type": "address"
        },
        {
          "internalType": "uint256",
          "name": "deadline",
          "type": "uint256"
        }
      ],
      "name": "removeLiquidity",
      "outputs": [
        {
          "internalType": "uint256",
          "name": "amountA",
          "type": "uint256"
        },
        {
          "internalType": "uint256",
          "name": "amountB",
          "type": "uint256"
        }
      ],
      "stateMutability": "nonpayable",
      "type": "function"
    },
    {
      "inputs": [
        {
          "internalType": "address",
          "name": "token",
          "type": "address"
        },
        {
          "internalType": "uint256",
          "name": "liquidity",
          "type": "uint256"
        },
        {
          "internalType": "uint256",
          "name": "amountTokenMin",
          "type": "uint256"
        },
        {
          "internalType": "uint256",
          "name": "amountETHMin",
          "type": "uint256"
        },
        {
          "internalType": "address",
          "name": "to",
          "type": "address"
        },
        {
          "internalType": "uint256",
          "name": "deadline",
          "type": "uint256"
        }
      ],
      "name": "removeLiquidityETHSupportingFeeOnTransferTokens",
      "outputs": [
        {
          "internalType": "uint256",
          "name": "amountETH",
          "type": "uint256"
        }
      ],
      "stateMutability": "nonpayable",
      "type": "function"
    },
    {
      "inputs": [
        {
          "internalType": "uint256",
          "name": "amountOutMin",
          "type": "uint256"
        },
        {
          "internalType": "address[]",
          "name": "path",
          "type": "address[]"
        },
        {
          "internalType": "address",
          "name": "to",
          "type": "address"
        },
        {
          "internalType": "uint256",
          "name": "deadline",
          "type": "uint256"
        }
      ],
      "name": "swapExactETHForTokensSupportingFeeOnTransferTokens",
      "outputs": [],
      "stateMutability": "payable",
      "type": "function"
    },
    {
      "inputs": [
        {
          "internalType": "uint256",
          "name": "amountIn",
          "type": "uint256"
        },
        {
          "internalType": "uint256",
          "name": "amountOutMin",
          "type": "uint256"
        },
        {
          "internalType": "address[]",
          "name": "path",
          "type": "address[]"
        },
        {
          "internalType": "address",
          "name": "to",
          "type": "address"
        },
        {
          "internalType": "uint256",
          "name": "deadline",
          "type": "uint256"
        }
      ],
      "name": "swapExactTokensForETHSupportingFeeOnTransferTokens",
      "outputs": [],
      "stateMutability": "nonpayable",
      "type": "function"
    },
    {
      "inputs": [
        {
          "internalType": "uint256",
          "name": "amountIn",
          "type": "uint256"
        },
        {
          "internalType": "uint256",
          "name": "amountOutMin",
          "type": "uint256"
        },
        {
          "internalType": "address[]",
          "name": "path",
          "type": "address[]"
        },
        {
          "internalType": "address",
          "name": "to",
          "type": "address"
        },
        {
          "internalType": "uint256",
          "name": "deadline",
          "type": "uint256"
        }
      ],
      "name": "swapExactTokensForTokensSupportingFeeOnTransferTokens",
      "outputs": [],
      "stateMutability": "nonpayable",
      "type": "function"
    },
    {
      "stateMutability": "payable",
      "type": "receive"
    }
  ],
  "bytecode": "0x60c06040523480156200001157600080fd5b50604051620034e7380380620034e7833981016040819052620000349162000070565b6001600160601b0319606092831b8116608052911b1660a052620000a7565b80516001600160a01b03811681146200006b57600080fd5b919050565b6000806040838503121562000083578182fd5b6200008e8362000053565b91506200009e6020840162000053565b90509250929050565b60805160601c60a05160601c613366620001816000396000818160f10152818161066f015281816107700152818161082e015281816108ae01528181610906015281816109d301528181610a7201528181610afd01528181610b71015281816111d60152818161122c0152818161126001526112ff01526000818161032c015281816103c401528181610ba301528181610e780152818161104b01528181611074015281816110da0152818161120a0152818161189301528181611a6801528181612030015281816120fe015261219101526133666000f3fe6080604052600436106100e15760003560e01c8063af2979eb1161007f578063c45a015511610059578063c45a015514610299578063d06ca61f146102ae578063e8e33700146102ce578063f305d719146102fd5761012e565b8063af2979eb14610238578063b6f9de9514610258578063baa2abde1461026b5761012e565b8063791ac947116100bb578063791ac947146101b657806385f8c259146101d6578063ad5c4648146101f6578063ad615dec146102185761012e565b8063054d50d4146101335780631f00ca74146101695780635c11d795146101965761012e565b3661012e57336001600160a01b037f0000000000000000000000000000000000000000000000000000000000000000161461012c57634e487b7160e01b600052600160045260246000fd5b005b600080fd5b34801561013f57600080fd5b5061015361014e3660046128db565b610310565b604051610160919061319e565b60405180910390f35b34801561017557600080fd5b5061018961018436600461277a565b610325565b6040516101609190612a22565b3480156101a257600080fd5b5061012c6101b136600461286a565b61035b565b3480156101c257600080fd5b5061012c6101d136600461286a565b610644565b3480156101e257600080fd5b506101536101f13660046128db565b61089f565b34801561020257600080fd5b5061020b6108ac565b60405161016091906129b7565b34801561022457600080fd5b506101536102333660046128db565b6108d0565b34801561024457600080fd5b50610153610253366004612632565b6108dd565b61012c610266366004612715565b610a4f565b34801561027757600080fd5b5061028b610286366004612546565b610e4d565b6040516101609291906131a7565b3480156102a557600080fd5b5061020b611049565b3480156102ba57600080fd5b506101896102c936600461277a565b61106d565b3480156102da57600080fd5b506102ee6102e93660046125b7565b61109a565b60405161016093929190613206565b6102ee61030b366004612632565b6111aa565b600061031d84848461144e565b949350505050565b60606103527f000000000000000000000000000000000000000000000000000000000000000084846114e8565b90505b92915050565b80428110156103855760405162461bcd60e51b815260040161037c90612e32565b60405180910390fd5b61045a858560008181106103a957634e487b7160e01b600052603260045260246000fd5b90506020020160208101906103be9190612507565b336104547f00000000000000000000000000000000000000000000000000000000000000008989600081811061040457634e487b7160e01b600052603260045260246000fd5b90506020020160208101906104199190612507565b8a8a600181811061043a57634e487b7160e01b600052603260045260246000fd5b905060200201602081019061044f9190612507565b6116a2565b8a611712565b60008585610469600182613273565b81811061048657634e487b7160e01b600052603260045260246000fd5b905060200201602081019061049b9190612507565b6001600160a01b03166370a08231856040518263ffffffff1660e01b81526004016104c691906129b7565b60206040518083038186803b1580156104de57600080fd5b505afa1580156104f2573d6000803e3d6000fd5b505050506040513d601f19601f8201168201806040525081019061051691906126fd565b9050610556868680806020026020016040519081016040528093929190818152602001838360200280828437600092019190915250889250611802915050565b86818787610565600182613273565b81811061058257634e487b7160e01b600052603260045260246000fd5b90506020020160208101906105979190612507565b6001600160a01b03166370a08231876040518263ffffffff1660e01b81526004016105c291906129b7565b60206040518083038186803b1580156105da57600080fd5b505afa1580156105ee573d6000803e3d6000fd5b505050506040513d601f19601f8201168201806040525081019061061291906126fd565b61061c9190613273565b101561063a5760405162461bcd60e51b815260040161037c90612eae565b5050505050505050565b80428110156106655760405162461bcd60e51b815260040161037c90612e32565b6001600160a01b037f000000000000000000000000000000000000000000000000000000000000000016858561069c600182613273565b8181106106b957634e487b7160e01b600052603260045260246000fd5b90506020020160208101906106ce9190612507565b6001600160a01b0316146106f45760405162461bcd60e51b815260040161037c90612b42565b610718858560008181106103a957634e487b7160e01b600052603260045260246000fd5b610756858580806020026020016040519081016040528093929190818152602001838360200280828437600092019190915250309250611802915050565b6040516370a0823160e01b81526000906001600160a01b037f000000000000000000000000000000000000000000000000000000000000000016906370a08231906107a59030906004016129b7565b60206040518083038186803b1580156107bd57600080fd5b505afa1580156107d1573d6000803e3d6000fd5b505050506040513d601f19601f820116820180604052508101906107f591906126fd565b9050868110156108175760405162461bcd60e51b815260040161037c90612dd5565b604051632e1a7d4d60e01b81526001600160a01b037f00000000000000000000000000000000000000000000000000000000000000001690632e1a7d4d9061086390849060040161319e565b600060405180830381600087803b15801561087d57600080fd5b505af1158015610891573d6000803e3d6000fd5b5050505061063a8482611b6d565b600061031d848484611bfa565b7f000000000000000000000000000000000000000000000000000000000000000081565b600061031d848484611c8e565b600081428110156109005760405162461bcd60e51b815260040161037c90612e32565b61092f887f00000000000000000000000000000000000000000000000000000000000000008989893089610e4d565b6040516370a0823160e01b81529093506109bc9150899086906001600160a01b038316906370a08231906109679030906004016129b7565b60206040518083038186803b15801561097f57600080fd5b505afa158015610993573d6000803e3d6000fd5b505050506040513d601f19601f820116820180604052508101906109b791906126fd565b611cf0565b604051632e1a7d4d60e01b81526001600160a01b037f00000000000000000000000000000000000000000000000000000000000000001690632e1a7d4d90610a0890859060040161319e565b600060405180830381600087803b158015610a2257600080fd5b505af1158015610a36573d6000803e3d6000fd5b50505050610a448483611b6d565b509695505050505050565b8042811015610a705760405162461bcd60e51b815260040161037c90612e32565b7f00000000000000000000000000000000000000000000000000000000000000006001600160a01b031685856000818110610abb57634e487b7160e01b600052603260045260246000fd5b9050602002016020810190610ad09190612507565b6001600160a01b031614610af65760405162461bcd60e51b815260040161037c9061315b565b60003490507f00000000000000000000000000000000000000000000000000000000000000006001600160a01b031663d0e30db0826040518263ffffffff1660e01b81526004016000604051808303818588803b158015610b5657600080fd5b505af1158015610b6a573d6000803e3d6000fd5b50505050507f00000000000000000000000000000000000000000000000000000000000000006001600160a01b031663a9059cbb610be37f00000000000000000000000000000000000000000000000000000000000000008989600081811061040457634e487b7160e01b600052603260045260246000fd5b836040518363ffffffff1660e01b8152600401610c01929190612a09565b602060405180830381600087803b158015610c1b57600080fd5b505af1158015610c2f573d6000803e3d6000fd5b505050506040513d601f19601f82011682018060405250810190610c53919061268f565b610c6d57634e487b7160e01b600052600160045260246000fd5b60008686610c7c600182613273565b818110610c9957634e487b7160e01b600052603260045260246000fd5b9050602002016020810190610cae9190612507565b6001600160a01b03166370a08231866040518263ffffffff1660e01b8152600401610cd991906129b7565b60206040518083038186803b158015610cf157600080fd5b505afa158015610d05573d6000803e3d6000fd5b505050506040513d601f19601f82011682018060405250810190610d2991906126fd565b9050610d69878780806020026020016040519081016040528093929190818152602001838360200280828437600092019190915250899250611802915050565b87818888610d78600182613273565b818110610d9557634e487b7160e01b600052603260045260246000fd5b9050602002016020810190610daa9190612507565b6001600160a01b03166370a08231886040518263ffffffff1660e01b8152600401610dd591906129b7565b60206040518083038186803b158015610ded57600080fd5b505afa158015610e01573d6000803e3d6000fd5b505050506040513d601f19601f82011682018060405250810190610e2591906126fd565b610e2f9190613273565b101561063a5760405162461bcd60e51b815260040161037c90612d41565b6000808242811015610e715760405162461bcd60e51b815260040161037c90612e32565b6000610e9e7f00000000000000000000000000000000000000000000000000000000000000008c8c6116a2565b6040517f23b872dd0000000000000000000000000000000000000000000000000000000081529091506001600160a01b038216906323b872dd90610eea90339085908e906004016129e5565b602060405180830381600087803b158015610f0457600080fd5b505af1158015610f18573d6000803e3d6000fd5b505050506040513d601f19601f82011682018060405250810190610f3c919061268f565b50600080826001600160a01b03166389afcb44896040518263ffffffff1660e01b8152600401610f6c91906129b7565b6040805180830381600087803b158015610f8557600080fd5b505af1158015610f99573d6000803e3d6000fd5b505050506040513d601f19601f82011682018060405250810190610fbd9190612847565b915091506000610fcd8e8e611ddd565b509050806001600160a01b03168e6001600160a01b031614610ff0578183610ff3565b82825b90975095508a8710156110185760405162461bcd60e51b815260040161037c90612faf565b898610156110385760405162461bcd60e51b815260040161037c9061303a565b505050505097509795505050505050565b7f000000000000000000000000000000000000000000000000000000000000000081565b60606103527f00000000000000000000000000000000000000000000000000000000000000008484611e67565b600080600083428110156110c05760405162461bcd60e51b815260040161037c90612e32565b6110ce8c8c8c8c8c8c612001565b909450925060006111007f00000000000000000000000000000000000000000000000000000000000000008e8e6116a2565b905061110e8d338388611712565b61111a8c338387611712565b6040516335313c2160e11b81526001600160a01b03821690636a62784290611146908a906004016129b7565b602060405180830381600087803b15801561116057600080fd5b505af1158015611174573d6000803e3d6000fd5b505050506040513d601f19601f8201168201806040525081019061119891906126fd565b92505050985098509895505050505050565b600080600083428110156111d05760405162461bcd60e51b815260040161037c90612e32565b6111fe8a7f00000000000000000000000000000000000000000000000000000000000000008b348c8c612001565b909450925060006112507f00000000000000000000000000000000000000000000000000000000000000008c7f00000000000000000000000000000000000000000000000000000000000000006116a2565b905061125e8b338388611712565b7f00000000000000000000000000000000000000000000000000000000000000006001600160a01b031663d0e30db0856040518263ffffffff1660e01b81526004016000604051808303818588803b1580156112b957600080fd5b505af11580156112cd573d6000803e3d6000fd5b50506040517fa9059cbb0000000000000000000000000000000000000000000000000000000081526001600160a01b037f000000000000000000000000000000000000000000000000000000000000000016935063a9059cbb9250611339915084908890600401612a09565b602060405180830381600087803b15801561135357600080fd5b505af1158015611367573d6000803e3d6000fd5b505050506040513d601f19601f8201168201806040525081019061138b919061268f565b6113a557634e487b7160e01b600052600160045260246000fd5b6040516335313c2160e11b81526001600160a01b03821690636a627842906113d1908a906004016129b7565b602060405180830381600087803b1580156113eb57600080fd5b505af11580156113ff573d6000803e3d6000fd5b505050506040513d601f19601f8201168201806040525081019061142391906126fd565b925083341115611440576114403361143b8634613273565b611b6d565b505096509650969350505050565b600080841161146f5760405162461bcd60e51b815260040161037c90612f0b565b60008311801561147f5750600082115b61149b5760405162461bcd60e51b815260040161037c90612bbc565b60006114a9856103e6612286565b905060006114b78285612286565b905060006114d1836114cb886103e8612286565b906122c6565b90506114dd8183613234565b979650505050505050565b606060028251101561150c5760405162461bcd60e51b815260040161037c90612d0a565b815167ffffffffffffffff81111561153457634e487b7160e01b600052604160045260246000fd5b60405190808252806020026020018201604052801561155d578160200160208202803683370190505b5090508281600183516115709190613273565b8151811061158e57634e487b7160e01b600052603260045260246000fd5b6020026020010181815250506000600183516115aa9190613273565b90505b801561169a5760008061161987866115c6600187613273565b815181106115e457634e487b7160e01b600052603260045260246000fd5b602002602001015187868151811061160c57634e487b7160e01b600052603260045260246000fd5b60200260200101516122f4565b9150915061164f84848151811061164057634e487b7160e01b600052603260045260246000fd5b60200260200101518383611bfa565b8461165b600186613273565b8151811061167957634e487b7160e01b600052603260045260246000fd5b60200260200101818152505050508080611692906132ba565b9150506115ad565b509392505050565b60008060006116b18585611ddd565b915091508582826040516020016116c9929190612906565b604051602081830303815290604052805190602001206040516020016116f0929190612949565b60408051601f1981840301815291905280516020909101209695505050505050565b600080856001600160a01b03166323b872dd868686604051602401611739939291906129e5565b6040516020818303038152906040529060e01b6020820180516001600160e01b038381831617835250505050604051611772919061292d565b6000604051808303816000865af19150503d80600081146117af576040519150601f19603f3d011682016040523d82523d6000602084013e6117b4565b606091505b50915091508180156117de5750805115806117de5750808060200190518101906117de919061268f565b6117fa5760405162461bcd60e51b815260040161037c90612c19565b505050505050565b60005b600183516118139190613273565b811015611b685760008084838151811061183d57634e487b7160e01b600052603260045260246000fd5b602002602001015185846001611853919061321c565b8151811061187157634e487b7160e01b600052603260045260246000fd5b60200260200101519150915060006118898383611ddd565b50905060006118b97f000000000000000000000000000000000000000000000000000000000000000085856116a2565b9050600080600080846001600160a01b0316630902f1ac6040518163ffffffff1660e01b815260040160606040518083038186803b1580156118fa57600080fd5b505afa15801561190e573d6000803e3d6000fd5b505050506040513d601f19601f8201168201806040525081019061193291906126af565b506dffffffffffffffffffffffffffff1691506dffffffffffffffffffffffffffff169150600080876001600160a01b03168a6001600160a01b03161461197a57828461197d565b83835b91509150818a6001600160a01b03166370a08231896040518263ffffffff1660e01b81526004016119ae91906129b7565b60206040518083038186803b1580156119c657600080fd5b505afa1580156119da573d6000803e3d6000fd5b505050506040513d601f19601f820116820180604052508101906119fe91906126fd565b611a089190613273565b9550611a1586838361144e565b945050505050600080856001600160a01b0316886001600160a01b031614611a3f57826000611a43565b6000835b91509150600060028c51611a579190613273565b8a10611a63578a611abf565b611abf7f0000000000000000000000000000000000000000000000000000000000000000898e611a948e600261321c565b81518110611ab257634e487b7160e01b600052603260045260246000fd5b60200260200101516116a2565b604080516000815260208101918290527f022c0d9f000000000000000000000000000000000000000000000000000000009091529091506001600160a01b0387169063022c0d9f90611b1a90869086908690602481016131b5565b600060405180830381600087803b158015611b3457600080fd5b505af1158015611b48573d6000803e3d6000fd5b505050505050505050505050508080611b60906132d1565b915050611805565b505050565b604080516000808252602082019092526001600160a01b038416908390604051611b97919061292d565b60006040518083038185875af1925050503d8060008114611bd4576040519150601f19603f3d011682016040523d82523d6000602084013e611bd9565b606091505b5050905080611b685760405162461bcd60e51b815260040161037c90612c76565b6000808411611c1b5760405162461bcd60e51b815260040161037c90613114565b600083118015611c2b5750600082115b611c475760405162461bcd60e51b815260040161037c90612f52565b6000611c5f6103e8611c598688612286565b90612286565b90506000611c736103e6611c5986896123e6565b9050611c8460016114cb8385613234565b9695505050505050565b6000808411611caf5760405162461bcd60e51b815260040161037c90612a9d565b600083118015611cbf5750600082115b611cdb5760405162461bcd60e51b815260040161037c90613080565b82611ce68386613254565b61031d9190613234565b600080846001600160a01b031663a9059cbb8585604051602401611d15929190612a09565b6040516020818303038152906040529060e01b6020820180516001600160e01b038381831617835250505050604051611d4e919061292d565b6000604051808303816000865af19150503d8060008114611d8b576040519150601f19603f3d011682016040523d82523d6000602084013e611d90565b606091505b5091509150818015611dba575080511580611dba575080806020019051810190611dba919061268f565b611dd65760405162461bcd60e51b815260040161037c906130b7565b5050505050565b600080826001600160a01b0316846001600160a01b03161415611e125760405162461bcd60e51b815260040161037c90612b0b565b826001600160a01b0316846001600160a01b031610611e32578284611e35565b83835b90925090506001600160a01b038216611e605760405162461bcd60e51b815260040161037c90612d9e565b9250929050565b6060600282511015611e8b5760405162461bcd60e51b815260040161037c90612cd3565b815167ffffffffffffffff811115611eb357634e487b7160e01b600052604160045260246000fd5b604051908082528060200260200182016040528015611edc578160200160208202803683370190505b5090508281600081518110611f0157634e487b7160e01b600052603260045260246000fd5b60200260200101818152505060005b60018351611f1e9190613273565b81101561169a57600080611f8087868581518110611f4c57634e487b7160e01b600052603260045260246000fd5b602002602001015187866001611f62919061321c565b8151811061160c57634e487b7160e01b600052603260045260246000fd5b91509150611fb6848481518110611fa757634e487b7160e01b600052603260045260246000fd5b6020026020010151838361144e565b84611fc285600161321c565b81518110611fe057634e487b7160e01b600052603260045260246000fd5b60200260200101818152505050508080611ff9906132d1565b915050611f10565b6040517fe6a43905000000000000000000000000000000000000000000000000000000008152600090819081907f00000000000000000000000000000000000000000000000000000000000000006001600160a01b03169063e6a439059061206f908c908c906004016129cb565b60206040518083038186803b15801561208757600080fd5b505afa15801561209b573d6000803e3d6000fd5b505050506040513d601f19601f820116820180604052508101906120bf919061252a565b6001600160a01b03161415612189576040517fc9c653960000000000000000000000000000000000000000000000000000000081526001600160a01b037f0000000000000000000000000000000000000000000000000000000000000000169063c9c6539690612135908b908b906004016129cb565b602060405180830381600087803b15801561214f57600080fd5b505af1158015612163573d6000803e3d6000fd5b505050506040513d601f19601f82011682018060405250810190612187919061252a565b505b6000806121b77f00000000000000000000000000000000000000000000000000000000000000008b8b6122f4565b915091508160001480156121c9575080155b156121d957879350869250612279565b60006121e6898484611c8e565b9050878111612224576121f98187612414565b858110156122195760405162461bcd60e51b815260040161037c90612e69565b889450925082612277565b6000612231898486611c8e565b90508981111561225157634e487b7160e01b600052600160045260246000fd5b878110156122715760405162461bcd60e51b815260040161037c90612ff5565b94508793505b505b5050965096945050505050565b60008115806122aa5750828261229c8183613254565b92506122a89083613234565b145b6103555760405162461bcd60e51b815260040161037c90612ad4565b6000826122d3838261321c565b91508110156103555760405162461bcd60e51b815260040161037c90612b85565b60008060006123038585611ddd565b5090506000806123148888886116a2565b6001600160a01b0316630902f1ac6040518163ffffffff1660e01b815260040160606040518083038186803b15801561234c57600080fd5b505afa158015612360573d6000803e3d6000fd5b505050506040513d601f19601f8201168201806040525081019061238491906126af565b506dffffffffffffffffffffffffffff1691506dffffffffffffffffffffffffffff169150826001600160a01b0316876001600160a01b0316146123c95780826123cc565b81815b90955093506123db8585612414565b505050935093915050565b6000826123f38382613273565b91508111156103555760405162461bcd60e51b815260040161037c90612a66565b612472828260405160240161242a9291906131a7565b60408051601f198184030181529190526020810180516001600160e01b03167f6c0f698000000000000000000000000000000000000000000000000000000000179052612476565b5050565b80516a636f6e736f6c652e6c6f67602083016000808483855afa5050505050565b80356124a281613318565b919050565b60008083601f8401126124b8578081fd5b50813567ffffffffffffffff8111156124cf578182fd5b6020830191508360208083028501011115611e6057600080fd5b80516dffffffffffffffffffffffffffff811681146124a257600080fd5b600060208284031215612518578081fd5b813561252381613318565b9392505050565b60006020828403121561253b578081fd5b815161252381613318565b600080600080600080600060e0888a031215612560578283fd5b873561256b81613318565b9650602088013561257b81613318565b955060408801359450606088013593506080880135925060a08801356125a081613318565b8092505060c0880135905092959891949750929550565b600080600080600080600080610100898b0312156125d3578081fd5b88356125de81613318565b975060208901356125ee81613318565b965060408901359550606089013594506080890135935060a0890135925060c089013561261a81613318565b8092505060e089013590509295985092959890939650565b60008060008060008060c0878903121561264a578182fd5b863561265581613318565b9550602087013594506040870135935060608701359250608087013561267a81613318565b8092505060a087013590509295509295509295565b6000602082840312156126a0578081fd5b81518015158114612523578182fd5b6000806000606084860312156126c3578283fd5b6126cc846124e9565b92506126da602085016124e9565b9150604084015163ffffffff811681146126f2578182fd5b809150509250925092565b60006020828403121561270e578081fd5b5051919050565b60008060008060006080868803121561272c578081fd5b85359450602086013567ffffffffffffffff811115612749578182fd5b612755888289016124a7565b909550935050604086013561276981613318565b949793965091946060013592915050565b6000806040838503121561278c578182fd5b8235915060208084013567ffffffffffffffff808211156127ab578384fd5b818601915086601f8301126127be578384fd5b8135818111156127d0576127d0613302565b838102604051858282010181811085821117156127ef576127ef613302565b604052828152858101935084860182860187018b101561280d578788fd5b8795505b838610156128365761282281612497565b855260019590950194938601938601612811565b508096505050505050509250929050565b60008060408385031215612859578182fd5b505080516020909101519092909150565b60008060008060008060a08789031215612882578384fd5b8635955060208701359450604087013567ffffffffffffffff8111156128a6578485fd5b6128b289828a016124a7565b90955093505060608701356128c681613318565b80925050608087013590509295509295509295565b6000806000606084860312156128ef578081fd5b505081359360208301359350604090920135919050565b6bffffffffffffffffffffffff19606093841b811682529190921b16601482015260280190565b6000825161293f81846020870161328a565b9190910192915050565b7fff00000000000000000000000000000000000000000000000000000000000000815260609290921b6bffffffffffffffffffffffff1916600183015260158201527f5925a8f0bba353d184f0709168e46a2c0307bd1183e3ed36fab07e52d7cae737603582015260550190565b6001600160a01b0391909116815260200190565b6001600160a01b0392831681529116602082015260400190565b6001600160a01b039384168152919092166020820152604081019190915260600190565b6001600160a01b03929092168252602082015260400190565b6020808252825182820181905260009190848201906040850190845b81811015612a5a57835183529284019291840191600101612a3e565b50909695505050505050565b60208082526015908201527f64732d6d6174682d7375622d756e646572666c6f770000000000000000000000604082015260600190565b6020808252601a908201527f71756f74653a20494e53554646494349454e545f414d4f554e54000000000000604082015260600190565b60208082526014908201527f64732d6d6174682d6d756c2d6f766572666c6f77000000000000000000000000604082015260600190565b6020808252601f908201527f736f7274546f6b656e733a204944454e544943414c5f41444452455353455300604082015260600190565b60208082526023908201527f737761704578616374546f6b656e73466f724554483a20494e56414c49445f50604082015262082a8960eb1b606082015260800190565b60208082526014908201527f64732d6d6174682d6164642d6f766572666c6f77000000000000000000000000604082015260600190565b60208082526024908201527f676574416d6f756e744f75743a20494e53554646494349454e545f4c4951554960408201527f4449545900000000000000000000000000000000000000000000000000000000606082015260800190565b60208082526031908201527f5472616e7366657248656c7065723a3a7472616e7366657246726f6d3a20747260408201527f616e7366657246726f6d206661696c6564000000000000000000000000000000606082015260800190565b60208082526034908201527f5472616e7366657248656c7065723a3a736166655472616e736665724554483a60408201527f20455448207472616e73666572206661696c6564000000000000000000000000606082015260800190565b6020808252601b908201527f676574416d6f756e74734f75743a20494e56414c49445f504154480000000000604082015260600190565b6020808252601a908201527f676574416d6f756e7473496e3a20494e56414c49445f50415448000000000000604082015260600190565b60208082526031908201527f737761704578616374455448466f72546f6b656e733a20494e5355464649434960408201527f454e545f4f55545055545f414d4f554e54000000000000000000000000000000606082015260800190565b60208082526018908201527f736f7274546f6b656e733a205a45524f5f414444524553530000000000000000604082015260600190565b60208082526031908201527f737761704578616374546f6b656e73466f724554483a20494e5355464649434960408201527f454e545f4f55545055545f414d4f554e54000000000000000000000000000000606082015260800190565b60208082526016908201527f526f7574657220656e737572653a204558504952454400000000000000000000604082015260600190565b60208082526025908201527f5f6164644c6971756964697479313a20494e53554646494349454e545f425f416040820152641353d5539560da1b606082015260800190565b6020808252602d908201527f426c756562657272795632526f757465723a20494e53554646494349454e545f60408201527f4f55545055545f414d4f554e5400000000000000000000000000000000000000606082015260800190565b60208082526027908201527f676574416d6f756e744f75743a20494e53554646494349454e545f494e50555460408201526617d05353d5539560ca1b606082015260800190565b60208082526023908201527f676574416d6f756e74496e3a20494e53554646494349454e545f4c495155494460408201527f4954590000000000000000000000000000000000000000000000000000000000606082015260800190565b60208082526026908201527f72656d6f76654c69717569646974793a20494e53554646494349454e545f415f604082015265105353d5539560d21b606082015260800190565b60208082526025908201527f5f6164644c6971756964697479323a20494e53554646494349454e545f415f416040820152641353d5539560da1b606082015260800190565b60208082526026908201527f72656d6f76654c69717569646974793a20494e53554646494349454e545f425f604082015265105353d5539560d21b606082015260800190565b6020808252601d908201527f71756f74653a20494e53554646494349454e545f4c4951554944495459000000604082015260600190565b6020808252602d908201527f5472616e7366657248656c7065723a3a736166655472616e736665723a20747260408201527f616e73666572206661696c656400000000000000000000000000000000000000606082015260800190565b60208082526027908201527f676574416d6f756e74496e3a20494e53554646494349454e545f4f555450555460408201526617d05353d5539560ca1b606082015260800190565b60208082526023908201527f737761704578616374455448466f72546f6b656e733a20494e56414c49445f50604082015262082a8960eb1b606082015260800190565b90815260200190565b918252602082015260400190565b60008582528460208301526001600160a01b03841660408301526080606083015282518060808401526131ef8160a085016020870161328a565b601f01601f19169190910160a00195945050505050565b9283526020830191909152604082015260600190565b6000821982111561322f5761322f6132ec565b500190565b60008261324f57634e487b7160e01b81526012600452602481fd5b500490565b600081600019048311821515161561326e5761326e6132ec565b500290565b600082821015613285576132856132ec565b500390565b60005b838110156132a557818101518382015260200161328d565b838111156132b4576000848401525b50505050565b6000816132c9576132c96132ec565b506000190190565b60006000198214156132e5576132e56132ec565b5060010190565b634e487b7160e01b600052601160045260246000fd5b634e487b7160e01b600052604160045260246000fd5b6001600160a01b038116811461332d57600080fd5b5056fea2646970667358221220585028398ca864902ed3284d785c09a068ecd8fc0ec5273a2d118c0623140a7d64736f6c63430008000033",
  "linkReferences": {},
  "deployedLinkReferences": {}
}