{
  "_format": "hh-sol-artifact-1",
  "contractName": "Router",
  "sourceName": "src/contracts/Router.sol",
  "abi": [
    {
      "inputs": [
        {
          "internalType": "address",
          "name": "_factory",
          "type": "address"
        },
        {
          "internalType": "address",
          "name": "_WETH",
          "type": "address"
        }
      ],
      "stateMutability": "nonpayable",
      "type": "constructor"
    },
    {
      "inputs": [],
      "name": "WETH",
      "outputs": [
        {
          "internalType": "address",
          "name": "",
          "type": "address"
        }
      ],
      "stateMutability": "view",
      "type": "function"
    },
    {
      "inputs": [
        {
          "internalType": "address",
          "name": "tokenA",
          "type": "address"
        },
        {
          "internalType": "address",
          "name": "tokenB",
          "type": "address"
        },
        {
          "internalType": "uint256",
          "name": "amountADesired",
          "type": "uint256"
        },
        {
          "internalType": "uint256",
          "name": "amountBDesired",
          "type": "uint256"
        },
        {
          "internalType": "uint256",
          "name": "amountAMin",
          "type": "uint256"
        },
        {
          "internalType": "uint256",
          "name": "amountBMin",
          "type": "uint256"
        },
        {
          "internalType": "address",
          "name": "to",
          "type": "address"
        },
        {
          "internalType": "uint256",
          "name": "deadline",
          "type": "uint256"
        }
      ],
      "name": "addLiquidity",
      "outputs": [
        {
          "internalType": "uint256",
          "name": "amountA",
          "type": "uint256"
        },
        {
          "internalType": "uint256",
          "name": "amountB",
          "type": "uint256"
        },
        {
          "internalType": "uint256",
          "name": "liquidity",
          "type": "uint256"
        }
      ],
      "stateMutability": "nonpayable",
      "type": "function"
    },
    {
      "inputs": [
        {
          "internalType": "address",
          "name": "token",
          "type": "address"
        },
        {
          "internalType": "uint256",
          "name": "amountTokenDesired",
          "type": "uint256"
        },
        {
          "internalType": "uint256",
          "name": "amountTokenMin",
          "type": "uint256"
        },
        {
          "internalType": "uint256",
          "name": "amountETHMin",
          "type": "uint256"
        },
        {
          "internalType": "address",
          "name": "to",
          "type": "address"
        },
        {
          "internalType": "uint256",
          "name": "deadline",
          "type": "uint256"
        }
      ],
      "name": "addLiquidityETH",
      "outputs": [
        {
          "internalType": "uint256",
          "name": "amountToken",
          "type": "uint256"
        },
        {
          "internalType": "uint256",
          "name": "amountETH",
          "type": "uint256"
        },
        {
          "internalType": "uint256",
          "name": "liquidity",
          "type": "uint256"
        }
      ],
      "stateMutability": "payable",
      "type": "function"
    },
    {
      "inputs": [],
      "name": "factory",
      "outputs": [
        {
          "internalType": "address",
          "name": "",
          "type": "address"
        }
      ],
      "stateMutability": "view",
      "type": "function"
    },
    {
      "inputs": [
        {
          "internalType": "uint256",
          "name": "amountOut",
          "type": "uint256"
        },
        {
          "internalType": "uint256",
          "name": "reserveIn",
          "type": "uint256"
        },
        {
          "internalType": "uint256",
          "name": "reserveOut",
          "type": "uint256"
        }
      ],
      "name": "getAmountIn",
      "outputs": [
        {
          "internalType": "uint256",
          "name": "amountIn",
          "type": "uint256"
        }
      ],
      "stateMutability": "pure",
      "type": "function"
    },
    {
      "inputs": [
        {
          "internalType": "uint256",
          "name": "amountIn",
          "type": "uint256"
        },
        {
          "internalType": "uint256",
          "name": "reserveIn",
          "type": "uint256"
        },
        {
          "internalType": "uint256",
          "name": "reserveOut",
          "type": "uint256"
        }
      ],
      "name": "getAmountOut",
      "outputs": [
        {
          "internalType": "uint256",
          "name": "amountOut",
          "type": "uint256"
        }
      ],
      "stateMutability": "pure",
      "type": "function"
    },
    {
      "inputs": [
        {
          "internalType": "uint256",
          "name": "amountOut",
          "type": "uint256"
        },
        {
          "internalType": "address[]",
          "name": "path",
          "type": "address[]"
        }
      ],
      "name": "getAmountsIn",
      "outputs": [
        {
          "internalType": "uint256[]",
          "name": "amounts",
          "type": "uint256[]"
        }
      ],
      "stateMutability": "view",
      "type": "function"
    },
    {
      "inputs": [
        {
          "internalType": "uint256",
          "name": "amountIn",
          "type": "uint256"
        },
        {
          "internalType": "address[]",
          "name": "path",
          "type": "address[]"
        }
      ],
      "name": "getAmountsOut",
      "outputs": [
        {
          "internalType": "uint256[]",
          "name": "amounts",
          "type": "uint256[]"
        }
      ],
      "stateMutability": "view",
      "type": "function"
    },
    {
      "inputs": [
        {
          "internalType": "uint256",
          "name": "amountA",
          "type": "uint256"
        },
        {
          "internalType": "uint256",
          "name": "reserveA",
          "type": "uint256"
        },
        {
          "internalType": "uint256",
          "name": "reserveB",
          "type": "uint256"
        }
      ],
      "name": "quote",
      "outputs": [
        {
          "internalType": "uint256",
          "name": "amountB",
          "type": "uint256"
        }
      ],
      "stateMutability": "pure",
      "type": "function"
    },
    {
      "inputs": [
        {
          "internalType": "address",
          "name": "tokenA",
          "type": "address"
        },
        {
          "internalType": "address",
          "name": "tokenB",
          "type": "address"
        },
        {
          "internalType": "uint256",
          "name": "liquidity",
          "type": "uint256"
        },
        {
          "internalType": "uint256",
          "name": "amountAMin",
          "type": "uint256"
        },
        {
          "internalType": "uint256",
          "name": "amountBMin",
          "type": "uint256"
        },
        {
          "internalType": "address",
          "name": "to",
          "type": "address"
        },
        {
          "internalType": "uint256",
          "name": "deadline",
          "type": "uint256"
        }
      ],
      "name": "removeLiquidity",
      "outputs": [
        {
          "internalType": "uint256",
          "name": "amountA",
          "type": "uint256"
        },
        {
          "internalType": "uint256",
          "name": "amountB",
          "type": "uint256"
        }
      ],
      "stateMutability": "nonpayable",
      "type": "function"
    },
    {
      "inputs": [
        {
          "internalType": "address",
          "name": "token",
          "type": "address"
        },
        {
          "internalType": "uint256",
          "name": "liquidity",
          "type": "uint256"
        },
        {
          "internalType": "uint256",
          "name": "amountTokenMin",
          "type": "uint256"
        },
        {
          "internalType": "uint256",
          "name": "amountETHMin",
          "type": "uint256"
        },
        {
          "internalType": "address",
          "name": "to",
          "type": "address"
        },
        {
          "internalType": "uint256",
          "name": "deadline",
          "type": "uint256"
        }
      ],
      "name": "removeLiquidityETH",
      "outputs": [
        {
          "internalType": "uint256",
          "name": "amountToken",
          "type": "uint256"
        },
        {
          "internalType": "uint256",
          "name": "amountETH",
          "type": "uint256"
        }
      ],
      "stateMutability": "nonpayable",
      "type": "function"
    },
    {
      "inputs": [
        {
          "internalType": "address",
          "name": "token",
          "type": "address"
        },
        {
          "internalType": "uint256",
          "name": "liquidity",
          "type": "uint256"
        },
        {
          "internalType": "uint256",
          "name": "amountTokenMin",
          "type": "uint256"
        },
        {
          "internalType": "uint256",
          "name": "amountETHMin",
          "type": "uint256"
        },
        {
          "internalType": "address",
          "name": "to",
          "type": "address"
        },
        {
          "internalType": "uint256",
          "name": "deadline",
          "type": "uint256"
        }
      ],
      "name": "removeLiquidityETHSupportingFeeOnTransferTokens",
      "outputs": [
        {
          "internalType": "uint256",
          "name": "amountETH",
          "type": "uint256"
        }
      ],
      "stateMutability": "nonpayable",
      "type": "function"
    },
    {
      "inputs": [
        {
          "internalType": "uint256",
          "name": "amountOutMin",
          "type": "uint256"
        },
        {
          "internalType": "address[]",
          "name": "path",
          "type": "address[]"
        },
        {
          "internalType": "address",
          "name": "to",
          "type": "address"
        },
        {
          "internalType": "uint256",
          "name": "deadline",
          "type": "uint256"
        }
      ],
      "name": "swapExactETHForTokensSupportingFeeOnTransferTokens",
      "outputs": [],
      "stateMutability": "payable",
      "type": "function"
    },
    {
      "inputs": [
        {
          "internalType": "uint256",
          "name": "amountIn",
          "type": "uint256"
        },
        {
          "internalType": "uint256",
          "name": "amountOutMin",
          "type": "uint256"
        },
        {
          "internalType": "address[]",
          "name": "path",
          "type": "address[]"
        },
        {
          "internalType": "address",
          "name": "to",
          "type": "address"
        },
        {
          "internalType": "uint256",
          "name": "deadline",
          "type": "uint256"
        }
      ],
      "name": "swapExactTokensForETHSupportingFeeOnTransferTokens",
      "outputs": [],
      "stateMutability": "nonpayable",
      "type": "function"
    },
    {
      "inputs": [
        {
          "internalType": "uint256",
          "name": "amountIn",
          "type": "uint256"
        },
        {
          "internalType": "uint256",
          "name": "amountOutMin",
          "type": "uint256"
        },
        {
          "internalType": "address[]",
          "name": "path",
          "type": "address[]"
        },
        {
          "internalType": "address",
          "name": "to",
          "type": "address"
        },
        {
          "internalType": "uint256",
          "name": "deadline",
          "type": "uint256"
        }
      ],
      "name": "swapExactTokensForTokensSupportingFeeOnTransferTokens",
      "outputs": [],
      "stateMutability": "nonpayable",
      "type": "function"
    },
    {
      "stateMutability": "payable",
      "type": "receive"
    }
  ],
  "bytecode": "0x60c06040523480156200001157600080fd5b506040516200361738038062003617833981016040819052620000349162000070565b6001600160601b0319606092831b8116608052911b1660a052620000a7565b80516001600160a01b03811681146200006b57600080fd5b919050565b6000806040838503121562000083578182fd5b6200008e8362000053565b91506200009e6020840162000053565b90509250929050565b60805160601c60a05160601c6134886200018f6000396000818160fc0152818161036e015281816103be015281816107910152818161089201528181610950015281816109d001528181610a2801528181610af501528181610b9401528181610c1f01528181610c93015281816112f80152818161134e015281816113820152611421015260008181610457015281816104e601528181610cc501528181610f9a0152818161116d01528181611196015281816111fc0152818161132c01528181611b3401528181611d09015281816121520152818161222001526122b301526134886000f3fe6080604052600436106100ec5760003560e01c8063ad615dec1161008a578063c45a015511610059578063c45a0155146102c4578063d06ca61f146102d9578063e8e33700146102f9578063f305d7191461032857610139565b8063ad615dec14610251578063af2979eb14610271578063b6f9de9514610291578063baa2abde146102a457610139565b80635c11d795116100c65780635c11d795146101cf578063791ac947146101ef57806385f8c2591461020f578063ad5c46481461022f57610139565b806302751cec1461013e578063054d50d4146101755780631f00ca74146101a257610139565b3661013957336001600160a01b037f0000000000000000000000000000000000000000000000000000000000000000161461013757634e487b7160e01b600052600160045260246000fd5b005b600080fd5b34801561014a57600080fd5b5061015e610159366004612754565b61033b565b60405161016c9291906132c9565b60405180910390f35b34801561018157600080fd5b506101956101903660046129fd565b61043b565b60405161016c91906132c0565b3480156101ae57600080fd5b506101c26101bd36600461289c565b610450565b60405161016c9190612b44565b3480156101db57600080fd5b506101376101ea36600461298c565b610486565b3480156101fb57600080fd5b5061013761020a36600461298c565b610766565b34801561021b57600080fd5b5061019561022a3660046129fd565b6109c1565b34801561023b57600080fd5b506102446109ce565b60405161016c9190612ad9565b34801561025d57600080fd5b5061019561026c3660046129fd565b6109f2565b34801561027d57600080fd5b5061019561028c366004612754565b6109ff565b61013761029f366004612837565b610b71565b3480156102b057600080fd5b5061015e6102bf366004612668565b610f6f565b3480156102d057600080fd5b5061024461116b565b3480156102e557600080fd5b506101c26102f436600461289c565b61118f565b34801561030557600080fd5b506103196103143660046126d9565b6111bc565b60405161016c93929190613328565b610319610336366004612754565b6112cc565b60008082428110156103685760405162461bcd60e51b815260040161035f90612f54565b60405180910390fd5b610397897f00000000000000000000000000000000000000000000000000000000000000008a8a8a308a610f6f565b90935091506103a7898685611570565b604051632e1a7d4d60e01b81526001600160a01b037f00000000000000000000000000000000000000000000000000000000000000001690632e1a7d4d906103f39085906004016132c0565b600060405180830381600087803b15801561040d57600080fd5b505af1158015610421573d6000803e3d6000fd5b5050505061042f858361165d565b50965096945050505050565b60006104488484846116ef565b949350505050565b606061047d7f00000000000000000000000000000000000000000000000000000000000000008484611789565b90505b92915050565b80428110156104a75760405162461bcd60e51b815260040161035f90612f54565b61057c858560008181106104cb57634e487b7160e01b600052603260045260246000fd5b90506020020160208101906104e09190612629565b336105767f00000000000000000000000000000000000000000000000000000000000000008989600081811061052657634e487b7160e01b600052603260045260246000fd5b905060200201602081019061053b9190612629565b8a8a600181811061055c57634e487b7160e01b600052603260045260246000fd5b90506020020160208101906105719190612629565b611943565b8a6119b3565b6000858561058b600182613395565b8181106105a857634e487b7160e01b600052603260045260246000fd5b90506020020160208101906105bd9190612629565b6001600160a01b03166370a08231856040518263ffffffff1660e01b81526004016105e89190612ad9565b60206040518083038186803b15801561060057600080fd5b505afa158015610614573d6000803e3d6000fd5b505050506040513d601f19601f82011682018060405250810190610638919061281f565b9050610678868680806020026020016040519081016040528093929190818152602001838360200280828437600092019190915250889250611aa3915050565b86818787610687600182613395565b8181106106a457634e487b7160e01b600052603260045260246000fd5b90506020020160208101906106b99190612629565b6001600160a01b03166370a08231876040518263ffffffff1660e01b81526004016106e49190612ad9565b60206040518083038186803b1580156106fc57600080fd5b505afa158015610710573d6000803e3d6000fd5b505050506040513d601f19601f82011682018060405250810190610734919061281f565b61073e9190613395565b101561075c5760405162461bcd60e51b815260040161035f90612fd0565b5050505050505050565b80428110156107875760405162461bcd60e51b815260040161035f90612f54565b6001600160a01b037f00000000000000000000000000000000000000000000000000000000000000001685856107be600182613395565b8181106107db57634e487b7160e01b600052603260045260246000fd5b90506020020160208101906107f09190612629565b6001600160a01b0316146108165760405162461bcd60e51b815260040161035f90612c64565b61083a858560008181106104cb57634e487b7160e01b600052603260045260246000fd5b610878858580806020026020016040519081016040528093929190818152602001838360200280828437600092019190915250309250611aa3915050565b6040516370a0823160e01b81526000906001600160a01b037f000000000000000000000000000000000000000000000000000000000000000016906370a08231906108c7903090600401612ad9565b60206040518083038186803b1580156108df57600080fd5b505afa1580156108f3573d6000803e3d6000fd5b505050506040513d601f19601f82011682018060405250810190610917919061281f565b9050868110156109395760405162461bcd60e51b815260040161035f90612ef7565b604051632e1a7d4d60e01b81526001600160a01b037f00000000000000000000000000000000000000000000000000000000000000001690632e1a7d4d906109859084906004016132c0565b600060405180830381600087803b15801561099f57600080fd5b505af11580156109b3573d6000803e3d6000fd5b5050505061075c848261165d565b6000610448848484611e09565b7f000000000000000000000000000000000000000000000000000000000000000081565b6000610448848484611e9d565b60008142811015610a225760405162461bcd60e51b815260040161035f90612f54565b610a51887f00000000000000000000000000000000000000000000000000000000000000008989893089610f6f565b6040516370a0823160e01b8152909350610ade9150899086906001600160a01b038316906370a0823190610a89903090600401612ad9565b60206040518083038186803b158015610aa157600080fd5b505afa158015610ab5573d6000803e3d6000fd5b505050506040513d601f19601f82011682018060405250810190610ad9919061281f565b611570565b604051632e1a7d4d60e01b81526001600160a01b037f00000000000000000000000000000000000000000000000000000000000000001690632e1a7d4d90610b2a9085906004016132c0565b600060405180830381600087803b158015610b4457600080fd5b505af1158015610b58573d6000803e3d6000fd5b50505050610b66848361165d565b509695505050505050565b8042811015610b925760405162461bcd60e51b815260040161035f90612f54565b7f00000000000000000000000000000000000000000000000000000000000000006001600160a01b031685856000818110610bdd57634e487b7160e01b600052603260045260246000fd5b9050602002016020810190610bf29190612629565b6001600160a01b031614610c185760405162461bcd60e51b815260040161035f9061327d565b60003490507f00000000000000000000000000000000000000000000000000000000000000006001600160a01b031663d0e30db0826040518263ffffffff1660e01b81526004016000604051808303818588803b158015610c7857600080fd5b505af1158015610c8c573d6000803e3d6000fd5b50505050507f00000000000000000000000000000000000000000000000000000000000000006001600160a01b031663a9059cbb610d057f00000000000000000000000000000000000000000000000000000000000000008989600081811061052657634e487b7160e01b600052603260045260246000fd5b836040518363ffffffff1660e01b8152600401610d23929190612b2b565b602060405180830381600087803b158015610d3d57600080fd5b505af1158015610d51573d6000803e3d6000fd5b505050506040513d601f19601f82011682018060405250810190610d7591906127b1565b610d8f57634e487b7160e01b600052600160045260246000fd5b60008686610d9e600182613395565b818110610dbb57634e487b7160e01b600052603260045260246000fd5b9050602002016020810190610dd09190612629565b6001600160a01b03166370a08231866040518263ffffffff1660e01b8152600401610dfb9190612ad9565b60206040518083038186803b158015610e1357600080fd5b505afa158015610e27573d6000803e3d6000fd5b505050506040513d601f19601f82011682018060405250810190610e4b919061281f565b9050610e8b878780806020026020016040519081016040528093929190818152602001838360200280828437600092019190915250899250611aa3915050565b87818888610e9a600182613395565b818110610eb757634e487b7160e01b600052603260045260246000fd5b9050602002016020810190610ecc9190612629565b6001600160a01b03166370a08231886040518263ffffffff1660e01b8152600401610ef79190612ad9565b60206040518083038186803b158015610f0f57600080fd5b505afa158015610f23573d6000803e3d6000fd5b505050506040513d601f19601f82011682018060405250810190610f47919061281f565b610f519190613395565b101561075c5760405162461bcd60e51b815260040161035f90612e63565b6000808242811015610f935760405162461bcd60e51b815260040161035f90612f54565b6000610fc07f00000000000000000000000000000000000000000000000000000000000000008c8c611943565b6040517f23b872dd0000000000000000000000000000000000000000000000000000000081529091506001600160a01b038216906323b872dd9061100c90339085908e90600401612b07565b602060405180830381600087803b15801561102657600080fd5b505af115801561103a573d6000803e3d6000fd5b505050506040513d601f19601f8201168201806040525081019061105e91906127b1565b50600080826001600160a01b03166389afcb44896040518263ffffffff1660e01b815260040161108e9190612ad9565b6040805180830381600087803b1580156110a757600080fd5b505af11580156110bb573d6000803e3d6000fd5b505050506040513d601f19601f820116820180604052508101906110df9190612969565b9150915060006110ef8e8e611eff565b509050806001600160a01b03168e6001600160a01b031614611112578183611115565b82825b90975095508a87101561113a5760405162461bcd60e51b815260040161035f906130d1565b8986101561115a5760405162461bcd60e51b815260040161035f9061315c565b505050505097509795505050505050565b7f000000000000000000000000000000000000000000000000000000000000000081565b606061047d7f00000000000000000000000000000000000000000000000000000000000000008484611f89565b600080600083428110156111e25760405162461bcd60e51b815260040161035f90612f54565b6111f08c8c8c8c8c8c612123565b909450925060006112227f00000000000000000000000000000000000000000000000000000000000000008e8e611943565b90506112308d3383886119b3565b61123c8c3383876119b3565b6040516335313c2160e11b81526001600160a01b03821690636a62784290611268908a90600401612ad9565b602060405180830381600087803b15801561128257600080fd5b505af1158015611296573d6000803e3d6000fd5b505050506040513d601f19601f820116820180604052508101906112ba919061281f565b92505050985098509895505050505050565b600080600083428110156112f25760405162461bcd60e51b815260040161035f90612f54565b6113208a7f00000000000000000000000000000000000000000000000000000000000000008b348c8c612123565b909450925060006113727f00000000000000000000000000000000000000000000000000000000000000008c7f0000000000000000000000000000000000000000000000000000000000000000611943565b90506113808b3383886119b3565b7f00000000000000000000000000000000000000000000000000000000000000006001600160a01b031663d0e30db0856040518263ffffffff1660e01b81526004016000604051808303818588803b1580156113db57600080fd5b505af11580156113ef573d6000803e3d6000fd5b50506040517fa9059cbb0000000000000000000000000000000000000000000000000000000081526001600160a01b037f000000000000000000000000000000000000000000000000000000000000000016935063a9059cbb925061145b915084908890600401612b2b565b602060405180830381600087803b15801561147557600080fd5b505af1158015611489573d6000803e3d6000fd5b505050506040513d601f19601f820116820180604052508101906114ad91906127b1565b6114c757634e487b7160e01b600052600160045260246000fd5b6040516335313c2160e11b81526001600160a01b03821690636a627842906114f3908a90600401612ad9565b602060405180830381600087803b15801561150d57600080fd5b505af1158015611521573d6000803e3d6000fd5b505050506040513d601f19601f82011682018060405250810190611545919061281f565b925083341115611562576115623361155d8634613395565b61165d565b505096509650969350505050565b600080846001600160a01b031663a9059cbb8585604051602401611595929190612b2b565b6040516020818303038152906040529060e01b6020820180516001600160e01b0383818316178352505050506040516115ce9190612a4f565b6000604051808303816000865af19150503d806000811461160b576040519150601f19603f3d011682016040523d82523d6000602084013e611610565b606091505b509150915081801561163a57508051158061163a57508080602001905181019061163a91906127b1565b6116565760405162461bcd60e51b815260040161035f906131d9565b5050505050565b604080516000808252602082019092526001600160a01b0384169083906040516116879190612a4f565b60006040518083038185875af1925050503d80600081146116c4576040519150601f19603f3d011682016040523d82523d6000602084013e6116c9565b606091505b50509050806116ea5760405162461bcd60e51b815260040161035f90612d98565b505050565b60008084116117105760405162461bcd60e51b815260040161035f9061302d565b6000831180156117205750600082115b61173c5760405162461bcd60e51b815260040161035f90612cde565b600061174a856103e66123a8565b9050600061175882856123a8565b905060006117728361176c886103e86123a8565b906123e8565b905061177e8183613356565b979650505050505050565b60606002825110156117ad5760405162461bcd60e51b815260040161035f90612e2c565b815167ffffffffffffffff8111156117d557634e487b7160e01b600052604160045260246000fd5b6040519080825280602002602001820160405280156117fe578160200160208202803683370190505b5090508281600183516118119190613395565b8151811061182f57634e487b7160e01b600052603260045260246000fd5b60200260200101818152505060006001835161184b9190613395565b90505b801561193b576000806118ba8786611867600187613395565b8151811061188557634e487b7160e01b600052603260045260246000fd5b60200260200101518786815181106118ad57634e487b7160e01b600052603260045260246000fd5b6020026020010151612416565b915091506118f08484815181106118e157634e487b7160e01b600052603260045260246000fd5b60200260200101518383611e09565b846118fc600186613395565b8151811061191a57634e487b7160e01b600052603260045260246000fd5b60200260200101818152505050508080611933906133dc565b91505061184e565b509392505050565b60008060006119528585611eff565b9150915085828260405160200161196a929190612a28565b60405160208183030381529060405280519060200120604051602001611991929190612a6b565b60408051601f1981840301815291905280516020909101209695505050505050565b600080856001600160a01b03166323b872dd8686866040516024016119da93929190612b07565b6040516020818303038152906040529060e01b6020820180516001600160e01b038381831617835250505050604051611a139190612a4f565b6000604051808303816000865af19150503d8060008114611a50576040519150601f19603f3d011682016040523d82523d6000602084013e611a55565b606091505b5091509150818015611a7f575080511580611a7f575080806020019051810190611a7f91906127b1565b611a9b5760405162461bcd60e51b815260040161035f90612d3b565b505050505050565b60005b60018351611ab49190613395565b8110156116ea57600080848381518110611ade57634e487b7160e01b600052603260045260246000fd5b602002602001015185846001611af4919061333e565b81518110611b1257634e487b7160e01b600052603260045260246000fd5b6020026020010151915091506000611b2a8383611eff565b5090506000611b5a7f00000000000000000000000000000000000000000000000000000000000000008585611943565b9050600080600080846001600160a01b0316630902f1ac6040518163ffffffff1660e01b815260040160606040518083038186803b158015611b9b57600080fd5b505afa158015611baf573d6000803e3d6000fd5b505050506040513d601f19601f82011682018060405250810190611bd391906127d1565b506dffffffffffffffffffffffffffff1691506dffffffffffffffffffffffffffff169150600080876001600160a01b03168a6001600160a01b031614611c1b578284611c1e565b83835b91509150818a6001600160a01b03166370a08231896040518263ffffffff1660e01b8152600401611c4f9190612ad9565b60206040518083038186803b158015611c6757600080fd5b505afa158015611c7b573d6000803e3d6000fd5b505050506040513d601f19601f82011682018060405250810190611c9f919061281f565b611ca99190613395565b9550611cb68683836116ef565b945050505050600080856001600160a01b0316886001600160a01b031614611ce057826000611ce4565b6000835b91509150600060028c51611cf89190613395565b8a10611d04578a611d60565b611d607f0000000000000000000000000000000000000000000000000000000000000000898e611d358e600261333e565b81518110611d5357634e487b7160e01b600052603260045260246000fd5b6020026020010151611943565b604080516000815260208101918290527f022c0d9f000000000000000000000000000000000000000000000000000000009091529091506001600160a01b0387169063022c0d9f90611dbb90869086908690602481016132d7565b600060405180830381600087803b158015611dd557600080fd5b505af1158015611de9573d6000803e3d6000fd5b505050505050505050505050508080611e01906133f3565b915050611aa6565b6000808411611e2a5760405162461bcd60e51b815260040161035f90613236565b600083118015611e3a5750600082115b611e565760405162461bcd60e51b815260040161035f90613074565b6000611e6e6103e8611e6886886123a8565b906123a8565b90506000611e826103e6611e688689612508565b9050611e93600161176c8385613356565b9695505050505050565b6000808411611ebe5760405162461bcd60e51b815260040161035f90612bbf565b600083118015611ece5750600082115b611eea5760405162461bcd60e51b815260040161035f906131a2565b82611ef58386613376565b6104489190613356565b600080826001600160a01b0316846001600160a01b03161415611f345760405162461bcd60e51b815260040161035f90612c2d565b826001600160a01b0316846001600160a01b031610611f54578284611f57565b83835b90925090506001600160a01b038216611f825760405162461bcd60e51b815260040161035f90612ec0565b9250929050565b6060600282511015611fad5760405162461bcd60e51b815260040161035f90612df5565b815167ffffffffffffffff811115611fd557634e487b7160e01b600052604160045260246000fd5b604051908082528060200260200182016040528015611ffe578160200160208202803683370190505b509050828160008151811061202357634e487b7160e01b600052603260045260246000fd5b60200260200101818152505060005b600183516120409190613395565b81101561193b576000806120a28786858151811061206e57634e487b7160e01b600052603260045260246000fd5b602002602001015187866001612084919061333e565b815181106118ad57634e487b7160e01b600052603260045260246000fd5b915091506120d88484815181106120c957634e487b7160e01b600052603260045260246000fd5b602002602001015183836116ef565b846120e485600161333e565b8151811061210257634e487b7160e01b600052603260045260246000fd5b6020026020010181815250505050808061211b906133f3565b915050612032565b6040517fe6a43905000000000000000000000000000000000000000000000000000000008152600090819081907f00000000000000000000000000000000000000000000000000000000000000006001600160a01b03169063e6a4390590612191908c908c90600401612aed565b60206040518083038186803b1580156121a957600080fd5b505afa1580156121bd573d6000803e3d6000fd5b505050506040513d601f19601f820116820180604052508101906121e1919061264c565b6001600160a01b031614156122ab576040517fc9c653960000000000000000000000000000000000000000000000000000000081526001600160a01b037f0000000000000000000000000000000000000000000000000000000000000000169063c9c6539690612257908b908b90600401612aed565b602060405180830381600087803b15801561227157600080fd5b505af1158015612285573d6000803e3d6000fd5b505050506040513d601f19601f820116820180604052508101906122a9919061264c565b505b6000806122d97f00000000000000000000000000000000000000000000000000000000000000008b8b612416565b915091508160001480156122eb575080155b156122fb5787935086925061239b565b6000612308898484611e9d565b90508781116123465761231b8187612536565b8581101561233b5760405162461bcd60e51b815260040161035f90612f8b565b889450925082612399565b6000612353898486611e9d565b90508981111561237357634e487b7160e01b600052600160045260246000fd5b878110156123935760405162461bcd60e51b815260040161035f90613117565b94508793505b505b5050965096945050505050565b60008115806123cc575082826123be8183613376565b92506123ca9083613356565b145b6104805760405162461bcd60e51b815260040161035f90612bf6565b6000826123f5838261333e565b91508110156104805760405162461bcd60e51b815260040161035f90612ca7565b60008060006124258585611eff565b509050600080612436888888611943565b6001600160a01b0316630902f1ac6040518163ffffffff1660e01b815260040160606040518083038186803b15801561246e57600080fd5b505afa158015612482573d6000803e3d6000fd5b505050506040513d601f19601f820116820180604052508101906124a691906127d1565b506dffffffffffffffffffffffffffff1691506dffffffffffffffffffffffffffff169150826001600160a01b0316876001600160a01b0316146124eb5780826124ee565b81815b90955093506124fd8585612536565b505050935093915050565b6000826125158382613395565b91508111156104805760405162461bcd60e51b815260040161035f90612b88565b612594828260405160240161254c9291906132c9565b60408051601f198184030181529190526020810180516001600160e01b03167f6c0f698000000000000000000000000000000000000000000000000000000000179052612598565b5050565b80516a636f6e736f6c652e6c6f67602083016000808483855afa5050505050565b80356125c48161343a565b919050565b60008083601f8401126125da578081fd5b50813567ffffffffffffffff8111156125f1578182fd5b6020830191508360208083028501011115611f8257600080fd5b80516dffffffffffffffffffffffffffff811681146125c457600080fd5b60006020828403121561263a578081fd5b81356126458161343a565b9392505050565b60006020828403121561265d578081fd5b81516126458161343a565b600080600080600080600060e0888a031215612682578283fd5b873561268d8161343a565b9650602088013561269d8161343a565b955060408801359450606088013593506080880135925060a08801356126c28161343a565b8092505060c0880135905092959891949750929550565b600080600080600080600080610100898b0312156126f5578081fd5b88356127008161343a565b975060208901356127108161343a565b965060408901359550606089013594506080890135935060a0890135925060c089013561273c8161343a565b8092505060e089013590509295985092959890939650565b60008060008060008060c0878903121561276c578182fd5b86356127778161343a565b9550602087013594506040870135935060608701359250608087013561279c8161343a565b8092505060a087013590509295509295509295565b6000602082840312156127c2578081fd5b81518015158114612645578182fd5b6000806000606084860312156127e5578283fd5b6127ee8461260b565b92506127fc6020850161260b565b9150604084015163ffffffff81168114612814578182fd5b809150509250925092565b600060208284031215612830578081fd5b5051919050565b60008060008060006080868803121561284e578081fd5b85359450602086013567ffffffffffffffff81111561286b578182fd5b612877888289016125c9565b909550935050604086013561288b8161343a565b949793965091946060013592915050565b600080604083850312156128ae578182fd5b8235915060208084013567ffffffffffffffff808211156128cd578384fd5b818601915086601f8301126128e0578384fd5b8135818111156128f2576128f2613424565b8381026040518582820101818110858211171561291157612911613424565b604052828152858101935084860182860187018b101561292f578788fd5b8795505b8386101561295857612944816125b9565b855260019590950194938601938601612933565b508096505050505050509250929050565b6000806040838503121561297b578182fd5b505080516020909101519092909150565b60008060008060008060a087890312156129a4578384fd5b8635955060208701359450604087013567ffffffffffffffff8111156129c8578485fd5b6129d489828a016125c9565b90955093505060608701356129e88161343a565b80925050608087013590509295509295509295565b600080600060608486031215612a11578081fd5b505081359360208301359350604090920135919050565b6bffffffffffffffffffffffff19606093841b811682529190921b16601482015260280190565b60008251612a618184602087016133ac565b9190910192915050565b7fff00000000000000000000000000000000000000000000000000000000000000815260609290921b6bffffffffffffffffffffffff1916600183015260158201527f5925a8f0bba353d184f0709168e46a2c0307bd1183e3ed36fab07e52d7cae737603582015260550190565b6001600160a01b0391909116815260200190565b6001600160a01b0392831681529116602082015260400190565b6001600160a01b039384168152919092166020820152604081019190915260600190565b6001600160a01b03929092168252602082015260400190565b6020808252825182820181905260009190848201906040850190845b81811015612b7c57835183529284019291840191600101612b60565b50909695505050505050565b60208082526015908201527f64732d6d6174682d7375622d756e646572666c6f770000000000000000000000604082015260600190565b6020808252601a908201527f71756f74653a20494e53554646494349454e545f414d4f554e54000000000000604082015260600190565b60208082526014908201527f64732d6d6174682d6d756c2d6f766572666c6f77000000000000000000000000604082015260600190565b6020808252601f908201527f736f7274546f6b656e733a204944454e544943414c5f41444452455353455300604082015260600190565b60208082526023908201527f737761704578616374546f6b656e73466f724554483a20494e56414c49445f50604082015262082a8960eb1b606082015260800190565b60208082526014908201527f64732d6d6174682d6164642d6f766572666c6f77000000000000000000000000604082015260600190565b60208082526024908201527f676574416d6f756e744f75743a20494e53554646494349454e545f4c4951554960408201527f4449545900000000000000000000000000000000000000000000000000000000606082015260800190565b60208082526031908201527f5472616e7366657248656c7065723a3a7472616e7366657246726f6d3a20747260408201527f616e7366657246726f6d206661696c6564000000000000000000000000000000606082015260800190565b60208082526034908201527f5472616e7366657248656c7065723a3a736166655472616e736665724554483a60408201527f20455448207472616e73666572206661696c6564000000000000000000000000606082015260800190565b6020808252601b908201527f676574416d6f756e74734f75743a20494e56414c49445f504154480000000000604082015260600190565b6020808252601a908201527f676574416d6f756e7473496e3a20494e56414c49445f50415448000000000000604082015260600190565b60208082526031908201527f737761704578616374455448466f72546f6b656e733a20494e5355464649434960408201527f454e545f4f55545055545f414d4f554e54000000000000000000000000000000606082015260800190565b60208082526018908201527f736f7274546f6b656e733a205a45524f5f414444524553530000000000000000604082015260600190565b60208082526031908201527f737761704578616374546f6b656e73466f724554483a20494e5355464649434960408201527f454e545f4f55545055545f414d4f554e54000000000000000000000000000000606082015260800190565b60208082526016908201527f526f7574657220656e737572653a204558504952454400000000000000000000604082015260600190565b60208082526025908201527f5f6164644c6971756964697479313a20494e53554646494349454e545f425f416040820152641353d5539560da1b606082015260800190565b6020808252602d908201527f426c756562657272795632526f757465723a20494e53554646494349454e545f60408201527f4f55545055545f414d4f554e5400000000000000000000000000000000000000606082015260800190565b60208082526027908201527f676574416d6f756e744f75743a20494e53554646494349454e545f494e50555460408201526617d05353d5539560ca1b606082015260800190565b60208082526023908201527f676574416d6f756e74496e3a20494e53554646494349454e545f4c495155494460408201527f4954590000000000000000000000000000000000000000000000000000000000606082015260800190565b60208082526026908201527f72656d6f76654c69717569646974793a20494e53554646494349454e545f415f604082015265105353d5539560d21b606082015260800190565b60208082526025908201527f5f6164644c6971756964697479323a20494e53554646494349454e545f415f416040820152641353d5539560da1b606082015260800190565b60208082526026908201527f72656d6f76654c69717569646974793a20494e53554646494349454e545f425f604082015265105353d5539560d21b606082015260800190565b6020808252601d908201527f71756f74653a20494e53554646494349454e545f4c4951554944495459000000604082015260600190565b6020808252602d908201527f5472616e7366657248656c7065723a3a736166655472616e736665723a20747260408201527f616e73666572206661696c656400000000000000000000000000000000000000606082015260800190565b60208082526027908201527f676574416d6f756e74496e3a20494e53554646494349454e545f4f555450555460408201526617d05353d5539560ca1b606082015260800190565b60208082526023908201527f737761704578616374455448466f72546f6b656e733a20494e56414c49445f50604082015262082a8960eb1b606082015260800190565b90815260200190565b918252602082015260400190565b60008582528460208301526001600160a01b03841660408301526080606083015282518060808401526133118160a08501602087016133ac565b601f01601f19169190910160a00195945050505050565b9283526020830191909152604082015260600190565b600082198211156133515761335161340e565b500190565b60008261337157634e487b7160e01b81526012600452602481fd5b500490565b60008160001904831182151516156133905761339061340e565b500290565b6000828210156133a7576133a761340e565b500390565b60005b838110156133c75781810151838201526020016133af565b838111156133d6576000848401525b50505050565b6000816133eb576133eb61340e565b506000190190565b60006000198214156134075761340761340e565b5060010190565b634e487b7160e01b600052601160045260246000fd5b634e487b7160e01b600052604160045260246000fd5b6001600160a01b038116811461344f57600080fd5b5056fea2646970667358221220bae4d109f3cfb8b9c6dabd7b3483a384d8441c71be3129123d9477e08bfacfd764736f6c63430008000033",
  "linkReferences": {},
  "deployedLinkReferences": {}
}