{
  "_format": "hh-sol-artifact-1",
  "contractName": "ExchangeLibrary",
  "sourceName": "src/contracts/libraries/ExchangeLibrary.sol",
  "abi": [
    {
      "inputs": [],
      "name": "getInitHash",
      "outputs": [
        {
          "internalType": "bytes32",
          "name": "hash",
          "type": "bytes32"
        }
      ],
      "stateMutability": "pure",
      "type": "function"
    }
  ],
  "bytecode": "0x612a2761003a600b82828239805160001a60731461002d57634e487b7160e01b600052600060045260246000fd5b30600052607381538281f3fe73000000000000000000000000000000000000000030146080604052600436106100355760003560e01c80633c9de1b81461003a575b600080fd5b610042610058565b60405161004f91906100ed565b60405180910390f35b60006040518060200161006a906100a7565b601f1982820381018352601f90910116604081905261008c91906020016100b4565b60405160208183030381529060405280519060200120905090565b6128fb806100f783390190565b60008251815b818110156100d457602081860181015185830152016100ba565b818111156100e25782828501525b509190910192915050565b9081526020019056fe60a06040526001600b5534801561001557600080fd5b5060408051808201825260088152672830b634b6902b1960c11b6020918201528151808301835260018152603160f81b90820152905146916100c1917f8b73c3c69bb8fe3d512ecc4cf759cc79239f7b179b0ffacaa9a75d522b39400f917f5a09c27a9578298091ed7303154862dd4bc132a2e2b7f72e7526a36627e1b13a917fc89efdaa54c0f20c7adf612882df0950f5a951637e0307cdcb4c672f298b8bc69186913091016100e9565b60408051601f198184030181529190528051602090910120600355503360601b608052610115565b9485526020850193909352604084019190915260608301526001600160a01b0316608082015260a00190565b60805160601c6127ba610141600039600081816109a4015281816111ff01526119e501526127ba6000f3fe608060405234801561001057600080fd5b50600436106101b95760003560e01c80636a627842116100f9578063ba9a7a5611610097578063d21220a711610071578063d21220a71461034d578063d505accf14610355578063dd62ed3e14610368578063fff6cae91461037b576101b9565b8063ba9a7a561461032a578063bc25cf7714610332578063c45a015514610345576101b9565b80637ecebe00116100d35780637ecebe00146102db57806389afcb44146102ee57806395d89b411461030f578063a9059cbb14610317576101b9565b80636a627842146102ad57806370a08231146102c05780637464fc3d146102d3576101b9565b806323b872dd116101665780633644e515116101405780633644e51514610282578063485cc9551461028a5780635909c0d51461029d5780635a3d5493146102a5576101b9565b806323b872dd1461025257806330adf81f14610265578063313ce5671461026d576101b9565b8063095ea7b311610197578063095ea7b3146102085780630dfe16811461022857806318160ddd1461023d576101b9565b8063022c0d9f146101be57806306fdde03146101d35780630902f1ac146101f1575b600080fd5b6101d16101cc366004611fae565b610383565b005b6101db610846565b6040516101e89190612171565b60405180910390f35b6101f961087f565b6040516101e89392919061258f565b61021b610216366004611f4b565b6108a9565b6040516101e8919061210b565b6102306108c0565b6040516101e89190612091565b6102456108cf565b6040516101e89190612116565b61021b610260366004611e96565b6108d5565b61024561096a565b61027561098e565b6040516101e891906125fe565b610245610993565b6101d1610298366004611e5e565b610999565b610245610a27565b610245610a2d565b6102456102bb366004611e26565b610a33565b6102456102ce366004611e26565b610ce7565b610245610cf9565b6102456102e9366004611e26565b610cff565b6103016102fc366004611e26565b610d11565b6040516101e89291906125b8565b6101db61108b565b61021b610325366004611f4b565b6110c4565b6102456110d1565b6101d1610340366004611e26565b6110d7565b6102306111fd565b610230611221565b6101d1610363366004611ed6565b611230565b610245610376366004611e5e565b6113ab565b6101d16113c8565b600b546001146103ae5760405162461bcd60e51b81526004016103a59061233a565b60405180910390fd5b6000600b55841515806103c15750600084115b6103dd5760405162461bcd60e51b81526004016103a5906121db565b6000806103e861087f565b5091509150816001600160701b03168710801561040d5750806001600160701b031686105b6104295760405162461bcd60e51b81526004016103a5906123df565b60055460065460009182916001600160a01b039182169190811690891682148015906104675750806001600160a01b0316896001600160a01b031614155b6104835760405162461bcd60e51b81526004016103a590612238565b8a1561049457610494828a8d611514565b89156104a5576104a5818a8c611514565b86156105a6576104e96040518060400160405280600f81526020017f2e2e2e2e2e737761702e2e2e2e2e2e0000000000000000000000000000000000815250611670565b6040517fda3329300000000000000000000000000000000000000000000000000000000081526001600160a01b038a169063da332930906105369033908f908f908e908e906004016120be565b600060405180830381600087803b15801561055057600080fd5b505af1158015610564573d6000803e3d6000fd5b505050506105a66040518060400160405280600f81526020017f2e2e2e2e2e737761702e2e2e2e2e2e0000000000000000000000000000000000815250611670565b6040516370a0823160e01b81526001600160a01b038316906370a08231906105d2903090600401612091565b60206040518083038186803b1580156105ea57600080fd5b505afa1580156105fe573d6000803e3d6000fd5b505050506040513d601f19601f820116820180604052508101906106229190611f96565b6040516370a0823160e01b81529094506001600160a01b038216906370a0823190610651903090600401612091565b60206040518083038186803b15801561066957600080fd5b505afa15801561067d573d6000803e3d6000fd5b505050506040513d601f19601f820116820180604052508101906106a19190611f96565b92505050600089856001600160701b03166106bc91906126ac565b83116106c95760006106e6565b6106dc8a6001600160701b0387166126ac565b6106e690846126ac565b905060006106fd8a6001600160701b0387166126ac565b831161070a576000610727565b61071d8a6001600160701b0387166126ac565b61072790846126ac565b905060008211806107385750600081115b6107545760405162461bcd60e51b81526004016103a590612507565b60006107766107648460026116cf565b610770876103e86116cf565b9061170f565b905060006107886107648460026116cf565b90506107ad620f42406107a76001600160701b038b8116908b166116cf565b906116cf565b6107b783836116cf565b10156107d55760405162461bcd60e51b81526004016103a59061253e565b50506107e38484888861173d565b886001600160a01b0316336001600160a01b03167fd78ad95fa46c994b6551d0da85fc275fe613ce37657fb8d5e3d130840159d82284848f8f60405161082c94939291906125e3565b60405180910390a350506001600b55505050505050505050565b6040518060400160405280600881526020017f50616c696d20563200000000000000000000000000000000000000000000000081525081565b6007546001600160701b0380821692600160701b830490911691600160e01b900463ffffffff1690565b60006108b63384846118d2565b5060015b92915050565b6005546001600160a01b031681565b60005481565b6001600160a01b038316600090815260026020908152604080832033845290915281205460001914610955576001600160a01b03841660009081526002602090815260408083203384529091529020546109309083906126ac565b6001600160a01b03851660009081526002602090815260408083203384529091529020555b61096084848461193a565b5060019392505050565b7f6e71edae12b1b97f4d1f60370fef10105fa2faae0126114a169c64845d6126c981565b601281565b60035481565b336001600160a01b037f000000000000000000000000000000000000000000000000000000000000000016146109e15760405162461bcd60e51b81526004016103a590612473565b600580546001600160a01b039384167fffffffffffffffffffffffff00000000000000000000000000000000000000009182161790915560068054929093169116179055565b60085481565b60095481565b6000600b54600114610a575760405162461bcd60e51b81526004016103a59061233a565b6000600b81905580610a6761087f565b506005546040516370a0823160e01b81529294509092506000916001600160a01b03909116906370a0823190610aa1903090600401612091565b60206040518083038186803b158015610ab957600080fd5b505afa158015610acd573d6000803e3d6000fd5b505050506040513d601f19601f82011682018060405250810190610af19190611f96565b6006546040516370a0823160e01b81529192506000916001600160a01b03909116906370a0823190610b27903090600401612091565b60206040518083038186803b158015610b3f57600080fd5b505afa158015610b53573d6000803e3d6000fd5b505050506040513d601f19601f82011682018060405250810190610b779190611f96565b90506000610b8e836001600160701b03871661170f565b90506000610ba5836001600160701b03871661170f565b90506000610bb387876119e0565b60005490915080610bea57610bd66103e8610770610bd187876116cf565b611bcc565b9850610be560006103e8611c3c565b610c31565b610c2e6001600160701b038916610c0186846116cf565b610c0b919061264a565b6001600160701b038916610c1f86856116cf565b610c29919061264a565b611ccb565b98505b60008911610c515760405162461bcd60e51b81526004016103a59061226f565b610c5b8a8a611c3c565b610c6786868a8a61173d565b8115610c9157600754610c8d906001600160701b0380821691600160701b9004166116cf565b600a555b336001600160a01b03167f4c209b5fc8ad50758f13e2e1088ba56a560dff690a1c6fef26394f4c03821c4f8585604051610ccc9291906125b8565b60405180910390a250506001600b5550949695505050505050565b60016020526000908152604090205481565b600a5481565b60046020526000908152604090205481565b600080600b54600114610d365760405162461bcd60e51b81526004016103a59061233a565b6000600b81905580610d4661087f565b506005546006546040516370a0823160e01b81529395509193506001600160a01b039081169291169060009083906370a0823190610d88903090600401612091565b60206040518083038186803b158015610da057600080fd5b505afa158015610db4573d6000803e3d6000fd5b505050506040513d601f19601f82011682018060405250810190610dd89190611f96565b90506000826001600160a01b03166370a08231306040518263ffffffff1660e01b8152600401610e089190612091565b60206040518083038186803b158015610e2057600080fd5b505afa158015610e34573d6000803e3d6000fd5b505050506040513d601f19601f82011682018060405250810190610e589190611f96565b30600090815260016020526040812054919250610e7588886119e0565b60005490915080610e8684876116cf565b610e90919061264a565b9a5080610e9d84866116cf565b610ea7919061264a565b995060008b118015610eb9575060008a115b610ed55760405162461bcd60e51b81526004016103a5906124aa565b610edf3084611ce3565b610eea878d8d611514565b610ef5868d8c611514565b6040516370a0823160e01b81526001600160a01b038816906370a0823190610f21903090600401612091565b60206040518083038186803b158015610f3957600080fd5b505afa158015610f4d573d6000803e3d6000fd5b505050506040513d601f19601f82011682018060405250810190610f719190611f96565b6040516370a0823160e01b81529095506001600160a01b038716906370a0823190610fa0903090600401612091565b60206040518083038186803b158015610fb857600080fd5b505afa158015610fcc573d6000803e3d6000fd5b505050506040513d601f19601f82011682018060405250810190610ff09190611f96565b9350610ffe85858b8b61173d565b811561102857600754611024906001600160701b0380821691600160701b9004166116cf565b600a555b8b6001600160a01b0316336001600160a01b03167fdccd412f0b1252819cb1fd330b93224ca42612892bb3f4f789976e6d819364968d8d60405161106d9291906125b8565b60405180910390a35050505050505050506001600b81905550915091565b6040518060400160405280600881526020017f50616c696d2d563200000000000000000000000000000000000000000000000081525081565b60006108b633848461193a565b6103e881565b600b546001146110f95760405162461bcd60e51b81526004016103a59061233a565b6000600b556005546006546007546040516370a0823160e01b81526001600160a01b0393841693909216916111ab91849186916001600160701b03169083906370a082319061114c903090600401612091565b60206040518083038186803b15801561116457600080fd5b505afa158015611178573d6000803e3d6000fd5b505050506040513d601f19601f8201168201806040525081019061119c9190611f96565b6111a691906126ac565b611514565b6007546040516370a0823160e01b81526111f39183918691600160701b90046001600160701b0316906001600160a01b038416906370a082319061114c903090600401612091565b50506001600b5550565b7f000000000000000000000000000000000000000000000000000000000000000081565b6006546001600160a01b031681565b428410156112505760405162461bcd60e51b81526004016103a59061243c565b6003546001600160a01b038816600090815260046020526040812080549192917f6e71edae12b1b97f4d1f60370fef10105fa2faae0126114a169c64845d6126c9918b918b918b9190876112a383612714565b919050558a6040516020016112bd9695949392919061211f565b604051602081830303815290604052805190602001206040516020016112e492919061205b565b6040516020818303038152906040528051906020012090506000600182868686604051600081526020016040526040516113219493929190612153565b6020604051602081039080840390855afa158015611343573d6000803e3d6000fd5b5050604051601f1901519150506001600160a01b038116158015906113795750886001600160a01b0316816001600160a01b0316145b6113955760405162461bcd60e51b81526004016103a590612371565b6113a08989896118d2565b505050505050505050565b600260209081526000928352604080842090915290825290205481565b600b546001146113ea5760405162461bcd60e51b81526004016103a59061233a565b6000600b556005546040516370a0823160e01b815261150d916001600160a01b0316906370a0823190611421903090600401612091565b60206040518083038186803b15801561143957600080fd5b505afa15801561144d573d6000803e3d6000fd5b505050506040513d601f19601f820116820180604052508101906114719190611f96565b6006546040516370a0823160e01b81526001600160a01b03909116906370a08231906114a1903090600401612091565b60206040518083038186803b1580156114b957600080fd5b505afa1580156114cd573d6000803e3d6000fd5b505050506040513d601f19601f820116820180604052508101906114f19190611f96565b6007546001600160701b0380821691600160701b90041661173d565b6001600b55565b604080518082018252601981527f7472616e7366657228616464726573732c75696e7432353629000000000000006020909101525160009081906001600160a01b038616907fa9059cbb2ab09eb219583f4a59a5d0623ade346d962bcd4e46b11da047c9049b9061158b90879087906024016120a5565b60408051601f198184030181529181526020820180516001600160e01b03167fffffffff000000000000000000000000000000000000000000000000000000009094169390931790925290516115e1919061203f565b6000604051808303816000865af19150503d806000811461161e576040519150601f19603f3d011682016040523d82523d6000602084013e611623565b606091505b509150915081801561164d57508051158061164d57508080602001905181019061164d9190611f76565b6116695760405162461bcd60e51b81526004016103a5906122cc565b5050505050565b6116cc816040516024016116849190612171565b60408051601f198184030181529190526020810180516001600160e01b03167f41304fac00000000000000000000000000000000000000000000000000000000179052611d6f565b50565b60008115806116f3575082826116e5818361268d565b92506116f1908361264a565b145b6108ba5760405162461bcd60e51b81526004016103a590612303565b60008261171c83826126ac565b91508111156108ba5760405162461bcd60e51b81526004016103a5906121a4565b600061174e6401000000004261272f565b60075490915060009061176e90600160e01b900463ffffffff16836126c3565b905060008163ffffffff1611801561178e57506001600160701b03841615155b80156117a257506001600160701b03831615155b1561181c5763ffffffff81166117b88585612624565b6117c2919061265e565b6001600160701b0316600860008282546117dc919061260c565b909155505063ffffffff81166117f28486612624565b6117fc919061265e565b6001600160701b031660096000828254611816919061260c565b90915550505b600780546dffffffffffffffffffffffffffff19166001600160701b03888116919091177fffffffff0000000000000000000000000000ffffffffffffffffffffffffffff16600160701b8883168102919091176001600160e01b0316600160e01b63ffffffff87160217928390556040517f1c411e9a96e071241c2f21f7726b17ae89e3cab4c78be50e062b03a9fffbbad1936118c293818116939091041690612575565b60405180910390a1505050505050565b6001600160a01b0380841660008181526002602090815260408083209487168084529490915290819020849055517f8c5be1e5ebec7d5bd14f71427d1e84f3dd0314c0f7b2291e5b200ac8c7c3b9259061192d908590612116565b60405180910390a3505050565b6001600160a01b03831660009081526001602052604090205461195e9082906126ac565b6001600160a01b03808516600090815260016020526040808220939093559084168152205461198e90829061260c565b6001600160a01b0380841660008181526001602052604090819020939093559151908516907fddf252ad1be2c89b69c2b068fc378daa952ba7f163c4a11628f55a4df523b3ef9061192d908590612116565b6000807f00000000000000000000000000000000000000000000000000000000000000006001600160a01b031663017e7e586040518163ffffffff1660e01b8152600401602060405180830381600087803b158015611a3e57600080fd5b505af1158015611a52573d6000803e3d6000fd5b505050506040513d601f19601f82011682018060405250810190611a769190611e42565b600a546001600160a01b038216158015945091925090611bb8578015611bb3576000611ab1610bd16001600160701b0380881690891661268d565b90506000611abe83611bcc565b9050611afe6040518060400160405280601381526020017f2e2e2e2e2e5f6d696e744665652e2e2e2e2e2e00000000000000000000000000815250611670565b611b158282808211611b1082846126ac565b611d90565b611b536040518060400160405280601381526020017f2e2e2e2e2e5f6d696e744665652e2e2e2e2e2e00000000000000000000000000815250611670565b80821115611bb0576000611b73611b6a848461170f565b600054906116cf565b90506000611b8c83611b868660056116cf565b90611df8565b90506000611b9a828461264a565b90508015611bac57611bac8782611c3c565b5050505b50505b611bc4565b8015611bc4576000600a555b505092915050565b60006003821115611c2d5750806000611be660028361264a565b611bf190600161260c565b90505b81811015611c2757905080600281611c0c818661264a565b611c16919061260c565b611c20919061264a565b9050611bf4565b50611c37565b8115611c37575060015b919050565b80600054611c4a919061260c565b60009081556001600160a01b038316815260016020526040902054611c7090829061260c565b6001600160a01b0383166000818152600160205260408082209390935591519091907fddf252ad1be2c89b69c2b068fc378daa952ba7f163c4a11628f55a4df523b3ef90611cbf908590612116565b60405180910390a35050565b6000818310611cda5781611cdc565b825b9392505050565b6001600160a01b038216600090815260016020526040902054611d079082906126ac565b6001600160a01b03831660009081526001602052604081209190915554611d2f9082906126ac565b60009081556040516001600160a01b038416907fddf252ad1be2c89b69c2b068fc378daa952ba7f163c4a11628f55a4df523b3ef90611cbf908590612116565b80516a636f6e736f6c652e6c6f67602083016000808483855afa5050505050565b611df284848484604051602401611daa94939291906125c6565b60408051601f198184030181529190526020810180516001600160e01b03167f6c647c8c00000000000000000000000000000000000000000000000000000000179052611d6f565b50505050565b600082611e05838261260c565b91508110156108ba5760405162461bcd60e51b81526004016103a5906123a8565b600060208284031215611e37578081fd5b8135611cdc8161276f565b600060208284031215611e53578081fd5b8151611cdc8161276f565b60008060408385031215611e70578081fd5b8235611e7b8161276f565b91506020830135611e8b8161276f565b809150509250929050565b600080600060608486031215611eaa578081fd5b8335611eb58161276f565b92506020840135611ec58161276f565b929592945050506040919091013590565b600080600080600080600060e0888a031215611ef0578283fd5b8735611efb8161276f565b96506020880135611f0b8161276f565b95506040880135945060608801359350608088013560ff81168114611f2e578384fd5b9699959850939692959460a0840135945060c09093013592915050565b60008060408385031215611f5d578182fd5b8235611f688161276f565b946020939093013593505050565b600060208284031215611f87578081fd5b81518015158114611cdc578182fd5b600060208284031215611fa7578081fd5b5051919050565b600080600080600060808688031215611fc5578081fd5b85359450602086013593506040860135611fde8161276f565b9250606086013567ffffffffffffffff80821115611ffa578283fd5b818801915088601f83011261200d578283fd5b81358181111561201b578384fd5b89602082850101111561202c578384fd5b9699959850939650602001949392505050565b600082516120518184602087016126e8565b9190910192915050565b7f190100000000000000000000000000000000000000000000000000000000000081526002810192909252602282015260420190565b6001600160a01b0391909116815260200190565b6001600160a01b03929092168252602082015260400190565b60006001600160a01b038716825285602083015284604083015260806060830152826080830152828460a084013781830160a090810191909152601f909201601f19160101949350505050565b901515815260200190565b90815260200190565b9586526001600160a01b0394851660208701529290931660408501526060840152608083019190915260a082015260c00190565b93845260ff9290921660208401526040830152606082015260800190565b60006020825282518060208401526121908160408501602087016126e8565b601f01601f19169190910160400192915050565b60208082526015908201527f64732d6d6174682d7375622d756e646572666c6f770000000000000000000000604082015260600190565b60208082526025908201527f556e697377617056323a20494e53554646494349454e545f4f55545055545f4160408201527f4d4f554e54000000000000000000000000000000000000000000000000000000606082015260800190565b60208082526010908201527f737761703a20494e56414c49445f544f00000000000000000000000000000000604082015260600190565b60208082526023908201527f6d696e743a20494e53554646494349454e545f4c49515549444954595f4d494e60408201527f5445440000000000000000000000000000000000000000000000000000000000606082015260800190565b6020808252601e908201527f5f736166655472616e736665723a205452414e534645525f4641494c45440000604082015260600190565b60208082526014908201527f64732d6d6174682d6d756c2d6f766572666c6f77000000000000000000000000604082015260600190565b6020808252600c908201527f6c6f636b3a204c4f434b45440000000000000000000000000000000000000000604082015260600190565b6020808252601c908201527f556e697377617056323a20494e56414c49445f5349474e415455524500000000604082015260600190565b60208082526014908201527f64732d6d6174682d6164642d6f766572666c6f77000000000000000000000000604082015260600190565b60208082526021908201527f556e697377617056323a20494e53554646494349454e545f4c4951554944495460408201527f5900000000000000000000000000000000000000000000000000000000000000606082015260800190565b60208082526012908201527f556e697377617056323a20455850495245440000000000000000000000000000604082015260600190565b60208082526015908201527f696e697469616c697a653a20464f5242494444454e0000000000000000000000604082015260600190565b60208082526023908201527f6275726e3a20494e53554646494349454e545f4c49515549444954595f42555260408201527f4e45440000000000000000000000000000000000000000000000000000000000606082015260800190565b6020808252601f908201527f737761703a20494e53554646494349454e545f494e5055545f414d4f554e5400604082015260600190565b60208082526007908201527f737761703a204b00000000000000000000000000000000000000000000000000604082015260600190565b6001600160701b0392831681529116602082015260400190565b6001600160701b03938416815291909216602082015263ffffffff909116604082015260600190565b918252602082015260400190565b938452602084019290925215156040830152606082015260800190565b93845260208401929092526040830152606082015260800190565b60ff91909116815260200190565b6000821982111561261f5761261f612743565b500190565b60006001600160701b038084168061263e5761263e612759565b92169190910492915050565b60008261265957612659612759565b500490565b60006001600160701b038083168185168183048111821515161561268457612684612743565b02949350505050565b60008160001904831182151516156126a7576126a7612743565b500290565b6000828210156126be576126be612743565b500390565b600063ffffffff838116908316818110156126e0576126e0612743565b039392505050565b60005b838110156127035781810151838201526020016126eb565b83811115611df25750506000910152565b600060001982141561272857612728612743565b5060010190565b60008261273e5761273e612759565b500690565b634e487b7160e01b600052601160045260246000fd5b634e487b7160e01b600052601260045260246000fd5b6001600160a01b03811681146116cc57600080fdfea2646970667358221220bf3a8fc5fa863b8965b3d3df91973561145439dea0ef81564b30164c523914c564736f6c63430008000033a2646970667358221220de54d26dc7cc5565d42e0705af5700b9e246bb3af8c3a19d473feadec1cba1c864736f6c63430008000033",
  "linkReferences": {},
  "deployedLinkReferences": {}
}