{
  "_format": "hh-sol-artifact-1",
  "contractName": "FixedPoint",
  "sourceName": "src/contracts/libraries/FixedPoint.sol",
  "abi": [
    {
      "inputs": [],
      "name": "Q112",
      "outputs": [
        {
          "internalType": "uint256",
          "name": "",
          "type": "uint256"
        }
      ],
      "stateMutability": "view",
      "type": "function"
    },
    {
      "inputs": [],
      "name": "RESOLUTION",
      "outputs": [
        {
          "internalType": "uint8",
          "name": "",
          "type": "uint8"
        }
      ],
      "stateMutability": "view",
      "type": "function"
    }
  ],
  "bytecode": "0x60d2610039600b82828239805160001a60731461002c57634e487b7160e01b600052600060045260246000fd5b30600052607381538281f3fe7300000000000000000000000000000000000000003014608060405260043610603d5760003560e01c80633bf7a83e146042578063552f888a14605c575b600080fd5b6048606d565b604051605391906085565b60405180910390f35b60626080565b60405160539190608e565b6e01000000000000000000000000000081565b607081565b90815260200190565b60ff9190911681526020019056fea2646970667358221220319ff1309655a30496ee9e9e296331c1b82dc6b24eaf1a895eb202b83e3df03e64736f6c63430008000033",
  "linkReferences": {},
  "deployedLinkReferences": {}
}